:020000040800F2
:1000000098070020A1010008771A00089B18000833
:10001000751A0008D503000833240008000000000A
:100020000000000000000000000000003522000871
:10003000D703000800000000791A000837220008E2
:10004000BB010008BB010008BB010008BB010008A0
:10005000BB010008BB010008BB010008BB01000890
:10006000BB010008BB010008BB010008BB01000880
:10007000BB010008BB010008BB010008BB01000870
:10008000BB010008BB010008BB010008BB01000860
:10009000BB010008BB010008BB010008BB01000850
:1000A000BB010008BB010008BB010008BB01000840
:1000B000BB010008BB010008ED220008BB010008DD
:1000C000BB010008BB010008BB010008BB01000820
:1000D000BB010008BB010008BB010008BB01000810
:1000E000BB010008BB010008BB010008BB01000800
:1000F000BB010008BB010008BB010008BB010008F0
:10010000BB010008BB010008BB010008BB010008DF
:10011000BB010008BB010008BB010008BB010008CF
:10012000BB010008BB010008BB010008BB010008BF
:10013000BB010008BB010008BB010008BB010008AF
:10014000BB010008BB010008BB010008BB0100089F
:10015000BB010008BB010008BB010008BB0100088F
:10016000BB010008BB010008BB010008BB0100087F
:10017000BB010008BB010008BB0100080000000033
:10018000BB010008BB010008DFF810D000F07CF8CC
:1001900000480047C1240008AFF300809807002002
:1001A0000648804706480047FEE7FEE7FEE7FEE711
:1001B000FEE7FEE7FEE7FEE7FEE7FEE7D1220008E6
:1001C000890100082DE9F05F0546002092469B4614
:1001D00088460646814640241BE02846414647465D
:1001E000224600F041F853465A46C01A914110D3B6
:1001F00011461846224600F028F82D1A67EB010830
:100200004F4622460120002100F01FF817EB00099D
:100210004E41201EA4F10104DFDC484631462A4647
:100220004346BDE8F09FD2B201E000F8012B491E21
:10023000FBD270470022F6E710B513460A46044683
:100240001946FFF7F0FF204610BD202A04DB203AB4
:1002500000FA02F1002070479140C2F1200320FA19
:1002600003F3194390407047202A04DB203A21FA17
:1002700002F00021704721FA02F3D040C2F12002BF
:100280009140084319467047064C074D06E0E06868
:1002900040F0010394E8070098471034AC42F6D3CD
:1002A000FFF776FF9C250008BC250008464910B5DD
:1002B0004A6822F440324A604A6843681A434A60F6
:1002C00001684A6822F480724A6001684A680369DA
:1002D00042EA03224A6001684A6822F040724A609A
:1002E00001684A6883681A434A6001688A6822F490
:1002F00000628A6001688A68C3681A438A60816AFA
:100300006FF07062D14201688A6822F070628A6080
:1003100001688A680CD0836A1A438A6001688A6817
:1003200022F040528A6001688A68C36A1A4301E079
:1003300022F040528A6001688A6822F002028A60D4
:1003400001688A68037E42EA43028A6090F82010BE
:10035000002901684A680FD042F400624A600168CF
:100360004A6822F460424A6001684A68174C436A4E
:1003700004EB43331A4301E022F400624A6001684F
:10038000CA6A22F47002CA620168CA6A838B104C7E
:1003900004EB03531A43CA6201688A6822F40072AC
:1003A0008A6001688A6890F8303042EA43228A60A5
:1003B00001688A6822F480628A6001688A684069FC
:1003C00042EA8020886010BD0023014000E0FFFF6A
:1003D0000000F0FFFEE7704778B50024009490F825
:1003E0003C20012A19D0012280F83C200A6807230A
:1003F0000568092A13D9EE680A3A02EB42029340D3
:100400009E43EE600B788A680A3B03EB43039A40F5
:100410000368DD682A43DA6010E0022078BD2E69A7
:1004200002EB420293409E432E610B788A6803EBF5
:1004300043039A4003681D692A431A614A681F23CF
:10044000072A13D205686E6B521E02EB820293409C
:100450009E436E630B790A885B1E92B203EB8303A3
:100460009A4003685D6B2A435A6327E005680D2AAA
:1004700012D22E6BD21F02EB820293409E432E6358
:100480000B790A88DB1F92B203EB83039A4003685F
:100490001D6B2A431A6311E0EE6A0D3A02EB8202E9
:1004A00093409E43EE620B790A880D3B92B203EBB8
:1004B00083039A400368DD6A2A43DA62164B0568B3
:1004C000144A9D4206D10D68122D03D1556845F49A
:1004D0008005556005689D4218D10B68102B01D02E
:1004E000112B13D1536843F400035360096810299A
:1004F0000CD10A490A4A0968B1FBF2F101EB81010A
:10050000490000E0491E00910029FBD180F83C40E1
:10051000002078BD00230140002001400C00002095
:1005200040420F000068C06C704770B504004FF087
:10053000000503D0206C002610B107E0012070BD3B
:10054000204600F01DF8666484F83C60206CC0060C
:1005500010D4206C20F4885040F002002064204623
:10056000FFF7A4FE6664206C20F0020040F001005A
:10057000206400E0012584F83C60284670BD00003E
:1005800010B586B0044614216846FFF753FE1149A2
:10059000206888421CD110480021026842F4807211
:1005A0000260006800F4807005900B4814380268FF
:1005B00042F001020260006800F001000590042092
:1005C00000900320CDE901016946044800F066F976
:1005D00006B010BD00200140443802400000024037
:1005E0002DE9F041044600680D4681684FF0000790
:1005F00049050BD58068C00508D5206C40F0200067
:10060000206484F83C700120BDE8F08100F028FAF5
:1006100006460FE0681C0DD025B100F021FA801BC2
:10062000A84207D9206C40F00400206484F83C7094
:100630000320E9E7206800688007EBD521686FF0A8
:1006400012000860206C40F400702064206881680B
:1006500011F0405F13D1217E89B9C16A11F4700F86
:1006600002D0806840050AD4206C20F48070206499
:10067000206CC00403D4206C40F0010020640020F2
:10068000C2E7000018B50021009190F83C20012A33
:1006900007D0012280F83C2002689368DB0702D073
:1006A00011E0022018BD936843F0010393602A4AC9
:1006B0002A4B1268B2FBF3F202EB420200E0521E38
:1006C0000092002AFBD102689368DB0741D0036CDB
:1006D00040F20164A34343F48073036453685B05F1
:1006E00005D5036C23F4005343F480530364036C77
:1006F000DB0404D5436C23F00603436400E041644B
:1007000080F83C1016496FF02203136049680068B6
:10071000CA06144906D088421BD1816811F0405F97
:1007200013D016E08842F8D00F4A904203D1D1F896
:100730000423D206F1D00D4A90420AD1D1F8041315
:1007400001F01F011029E8D303E0816841F08041E6
:100750008160002018BD00000C00002040420F0006
:1007600000230140002001400021014000220140FF
:1007700090F83C1001290CD0012180F83C10016850
:100780008A6822F001028A6001688968C90702D07C
:1007900007E002207047016C21F4885141F001010B
:1007A0000164002180F83C100846704770B5437919
:1007B000012B1AD0012646710223037105682C68AB
:1007C00040F6FE7393409C43D1E900310B439340C4
:1007D00023432B6001680B68C0249440A3430B6043
:1007E000067100214171084670BD022070BD70B5D0
:1007F000040003D02079002510B105E0012070BD70
:100800006571204600F008F8022020712561012062
:100810002071002070BD000010B586B00446142180
:100820006846FFF707FD1149206888421CD110482F
:100830000021026842F000520260006800F000509F
:1008400005900B481038026842F00102026000680F
:1008500000F001000590302000900320CDE9010157
:100860006946044800F01AF806B010BD0074004054
:10087000403802400000024070B5044600F0F0F835
:100880000546601C02D004480078044400F0E8F8F3
:10089000401BA042FAD370BD000000202DE9F84FA4
:1008A00000224FF0010803254FF00F0E0B6808FAE5
:1008B00002F42340A3426ED14E68012E05D0022ED1
:1008C00003D0112E01D0122E12D186684FEA420CAD
:1008D00005FA0CF7BE43CF6807FA0CF73743876079
:1008E0004668A6430C79C4F3001494403443446032
:1008F000C668570005FA07FC8C6826EA0C06BC405F
:100900003443C4604C68022C01D0122C13D1D4089B
:1009100000EB8404A346D4F8209054074FEAD46A2D
:100920000EFA0AF629EA06090E6906FA0AF646EAF6
:100930000906CBF8206006680C7926EA0C0604F05C
:100940000304BC40344304604C68E40065D5364C75
:10095000266846F480462660246822F0030604F4E4
:1009600080440094314C3444A446D4F80848960797
:10097000370F0EFA07F6B4432D4EB04201D10026D0
:1009800024E02C4EB04201D101261FE02A4EB04295
:1009900002D102261AE040E0284EB04201D10326DF
:1009A00014E0274EB04201D104260FE0254EB0429C
:1009B00001D105260AE0244EB04201D1062605E009
:1009C000224EB04201D1072600E00826BE40264351
:1009D000CCF808681E4E34684F689C43FF0300D56E
:1009E0001C4334601A4C241D26684F689E43BF0385
:1009F00000D51E432660164E083634684F689C4367
:100A0000FF0200D51C433460114E0C3634684F6829
:100A10009C43BF0200D51C433460521C102AFFF4D3
:100A200045AFBDE8F88F0000443802400030014077
:100A3000000002400004024000080240000C024096
:100A4000001002400014024000180240001C024046
:100A5000003C01400AB1816170470904FBE70000D6
:100A6000014880687047000000000020024881684B
:100A70000278114481607047000000200B4810B5D7
:100A8000016841F400710160016841F48061016016
:100A9000016841F480710160032000F06FF80020CC
:100AA00000F006F800F024F8002010BD003C0240E1
:100AB00070B50D4D04464FF47A712878B1FBF0F013
:100AC0000A490968B1FBF0F000F02CFD48B9102C80
:100AD00007D200222146501E00F030F800206C6042
:100AE00070BD012070BD0000000000200C0000203F
:100AF0000A4808B5016841F480410160006800F4CB
:100B0000804000900548001F016841F0805101605D
:100B1000006800F08050009008BD0000443802409A
:100B2000002809DB00F01F020121914040098000EC
:100B300000F1E020C0F8001170470000F0B40E4B47
:100B40001B680C46C3F30223C3F10705042D00D92B
:100B50000425191D072901D2002300E0DB1E012610
:100B600006FA05F1491E214099409E40761E164026
:100B70003143F0BC01F05EBC0CED00E0064900F032
:100B8000070208684FF6FF03184040EA0220034AB4
:100B900010430860704700000CED00E00000FA050B
:100BA0002DE9F0470E46050065D0DFF81481D8F82E
:100BB0000000F7B200F00F00B04207D288F80070D2
:100BC000D8F8000000F00F00B04254D128683D4C26
:100BD000810712D5400703D5206840F4E05020601B
:100BE0002878000703D5206840F460402060206822
:100BF000A96820F0F000084320602878C0072DD0B5
:100C0000304968680839012812D0022813D0032817
:100C100011D00968890700292DDA216821F0030124
:100C200001432160FFF71CFF814641F2883A0EE044
:100C300009688903EFE709688901ECE7FFF710FF0E
:100C4000A0EB0901514502D90320BDE8F0872068D7
:100C5000696800F00C00B0EB810FEFD1D8F80010FC
:100C6000404601F00F01B14207D90770006800F05B
:100C70000F00B04201D00120E7E72878400705D5F2
:100C80002068E96820F4E0500843206028780007D5
:100C900006D52068296920F4604040EAC100206040
:100CA00000F018F82168084AC1F30311515CC840EC
:100CB0000649086006480068FFF7FAFE0020C4E70E
:100CC000003C0240083802408C2500080C0000203F
:100CD00004000020154810B5006810F00C021448FC
:100CE00013D04110042A0FD0082A0ED10F4C241F14
:100CF0002268236802F03F025B0207D52068C0F338
:100D00008810A0FB010106E0084610BD2168C1F370
:100D10008811A1FB00010023FFF754FA2168C1F3F9
:100D20000141491C4900B0FBF1F010BD08380240F8
:100D30000024F4002DE9F84F04006ED02078DFF88D
:100D40003C93C007A9F104054AD009F104000168E9
:100D5000C1F38101012908D00068C0F38100022895
:100D60000AD1D9F80000400206D52868800337D59B
:100D700060680028E1D033E06068B0F5803F10D0B3
:100D8000B0F5A02F286810D020F4803028602868A3
:100D900020F4802028606068A8B1FFF761FE064655
:100DA0000DE0286840F48030F4E740F480202860AB
:100DB000F7E700BFFFF754FE801B642873D828684C
:100DC0008003F7D50CE0FFF74BFE064605E000BFB9
:100DD000FFF746FE801B6428F0D828688003F7D40C
:100DE0002078DFF89C8280074FF0000A3ED5A348A8
:100DF000001D016811F00C0F08D00068C0F38100DD
:100E000002280BD1D9F80000400207D428688007D7
:100E100016D5E068012800D112E02BE1E068B8B1F6
:100E20000120C8F80000FFF71BFE064605E000BFE2
:100E3000FFF716FE801B0228C0D828688007F7D568
:100E40002868216920F0F80040EAC10028600DE020
:100E5000C8F800A0FFF704FE064604E0FFF700FE16
:100E6000801B02281FD828688007F7D42078000745
:100E700022D5824E83486169703671B101210160CB
:100E8000FFF7EEFD074604E0FFF7EAFDC01B02286E
:100E900009D830688007F7D50EE0C0F800A0FFF74A
:100EA000DFFD074605E082E0FFF7DAFDC01B022800
:100EB0007DD830688007F7D42078400768D5DFF800
:100EC000BCB100270BF13C0BDBF80000C0000BD4D9
:100ED000DBF8001041F08051CBF80010DBF8000087
:100EE000012700F080500090674E3068C00510D494
:100EF000306840F480703060FFF7B2FD009005E08C
:100F0000FFF7AEFD0099401A022850D83068C0059E
:100F1000F6D55A4EA0686C3601280FD005283068E7
:100F200010D020F001003060306820F00400306004
:100F3000A068B8B1FFF794FD00900FE0306840F072
:100F40000100F4E740F004003060F7E7FFF788FDA8
:100F50000099411A41F28830814266D83068800792
:100F6000F4D50EE0FFF77CFD009007E0FFF778FD79
:100F70000099411A41F28830814256D83068800782
:100F8000F4D42FB1DBF8001021F08051CBF8001021
:100F9000A069C8B33949091D0968C1F38101022953
:100FA0004AD00228504607D0C8F8600000E03CE074
:100FB000FFF756FD04463BE04746C8F86000FFF7E0
:100FC0004FFD064605E000BFFFF74AFD801B0228E3
:100FD0002BD828688001F7D4D4E907010843A16A17
:100FE0002A4A490802EB0141626A41EA8211084338
:100FF00094F82C1040EA0161C9F80010012038660D
:10100000FFF72EFD044606E036E000BFFFF728FD9F
:10101000001B022809D828688001F7D52CE000BF02
:10102000FFF71EFD001B022802D90320BDE8F88F40
:1010300028688001F4D41FE00128F7D0D9F8000017
:10104000E26900F48001914214D1226A00F03F016C
:1010500091420FD147F6C071626A0140914209D1B5
:10106000A26A00F44031914204D1E16A00F070605C
:10107000884201D00120D9E70020D7E70438024098
:1010800000004742800E4742007000400000FFFF12
:101090002DE9FE43044603200F4684F83400606CBB
:1010A00003285AD0B7F5805F57D04FF4006600256B
:1010B0004FF08068B7421CD100950195002120684F
:1010C00000F0F1FC800121D46946204600F076FF53
:1010D00098BB0198400332D5B4F850000104206851
:1010E00000F011FD48BB0221206822E0A06B2843DC
:1010F00027E01FB1A06B40F0006022E00095019551
:101100000021206800F0CFFC800101D53546EDE7D5
:101110006946204600F052FF78B90198C0030ED509
:10112000B4F850000104206800F0EDFC28B900215B
:10113000206800F034FD0028D8D00546D6E74546A3
:10114000D4E7A063A06B012558B121680C488863DF
:1011500084F834500120BDE8FE83A06B40F080503D
:10116000EFE7211DD4E905060EC90097CDE9010678
:10117000206800F09BFC84F834500020EBE700006E
:10118000FF054000F0B5426E920F0A70426EC2F346
:1011900083624A70426EC2F301628A70426E120C20
:1011A000CA70B0F86420120A0A7190F864204A717B
:1011B000826E120DCA80826EC2F303420A72B0F8C8
:1011C0006820C2F3C0324A72B0F86820C2F380329D
:1011D0008A72B0F86820C2F34032CA72B0F8682050
:1011E000C2F300320A7300264E73426C4FF400754E
:1011F000012462B1012A3AD0026847499163816BA8
:1012000041F08051816380F834400120F0BDB0F896
:101210006820C36E9205120D42EA93720A61C26E93
:10122000C2F3C2620A75C26EC2F302624A75C26E2E
:10123000C2F342528A75C26EC2F38242CA75C26E4E
:10124000C2F3C2320A760A69521C42650B7E03F071
:1012500007039B1C9A4042650B7A03F00F0704FAC0
:1012600007F383655B0A5A43C0E917250EE090F83F
:101270006820C36E9206920A42EA13420A610A6922
:10128000521C92024265C0E91652056630F86C2F76
:10129000C2F3803201F8192F0288C2F3C6124A70D5
:1012A000027802F07F028A704268D20FCA704268E8
:1012B000C2F341720A714268C2F382624A714268A3
:1012C000C2F383528A714268C2F34052CA710E72ED
:1012D0004268C2F300424A728288C2F3C0328A7204
:1012E0008288C2F38032CA728288C2F340320A73A3
:1012F0008288C2F300324A738288C2F381228A73E1
:101300008288C2F30122CA730079C0F346000874D0
:101310004C740020F0BD0000FF05400070B50400D3
:101320000ED094F83400002518B92577204600F037
:101330003BF8032084F83400204600F00BF808B195
:10134000012070BDA5632563012084F834000020CE
:1013500070BD0000FEB50025044676200095CDE95D
:10136000015029460B460A46206800F09FFB08B151
:101370000120FEBD0B4E46F8A05F206800F0A8FBE0
:1013800001253560204600F0FBFE20B9204600F024
:101390007FFE0028EDD084F83450A16B0143A16397
:1013A000E6E7000000802542F0B587B0044614212E
:1013B0006846FEF73FFF1D492068884233D11C482C
:1013C0000024016841F400610160006800F40060DD
:1013D000059017481438016841F004010160016864
:1013E00001F004010591016841F008010160006805
:1013F000022500F0080005904FF4F850CDE90005F3
:1014000002AA03260C2782E8D00069460948FFF7A4
:1014100045FA0420CDE9000502AA694682E8D00019
:101420000548FFF73BFA07B0F0BD0000002C014073
:101430004438024000080240000C024070B504002D
:1014400005D00025A56294F8510010B106E00120F6
:1014500070BD84F85050204600F030F8022084F827
:1014600051002068016821F040010160D4E90101C8
:101470000843D4E903121143084361690843218BEF
:1014800001F400710843E1690843216A0843A16A35
:10149000084321680860A069042101EA1040616ADC
:1014A0000843216848602068C16921F40061C16176
:1014B0006565012084F85100002070BD10B586B02C
:1014C000044614216846FEF7B5FE13492068884299
:1014D00020D112480021026842F480520260006864
:1014E00000F4805005900D481438026842F0020262
:1014F0000260006800F00200059038200090022091
:10150000CDE90101032003900520049069460448B9
:10151000FFF7C4F906B010BD003001404438024066
:101520000004024010B5401EB0F1807F01D30120BD
:1015300010BD4FF0E02460610F21601700F07AFFCA
:101540000020A06107202061002010BD7047704777
:1015500070B590F83C20012A32D0012480F83C403C
:10156000022280F83D2003685A689D6822F07006C8
:101570000A6832435A60134B02689A4214D0B2F19F
:10158000804F11D0104B9A420ED0104B9A420BD084
:101590000F4B9A4208D00F4B9A4205D00E4B9A42FD
:1015A00002D00E4B9A4204D1496825F080031943BA
:1015B000916080F83D40002180F83C10084670BDE5
:1015C000022070BD000001400004004000080040FF
:1015D000000C0040000401400040014000180040A1
:1015E00010B5040003D094F83D0010B107E00120CD
:1015F00010BD002084F83C00204600F00DF80220C9
:1016000084F83D00211D206800F07AFE012084F856
:101610003D00002010BD000008B500680B4988425D
:1016200012D10B48016841F00401016000680022FA
:1016300000F00400009011461E20FFF77FFABDE87D
:1016400008401E20FFF76CBA08BD000000080040EB
:101650004038024070B5044690F83C00012817D08D
:10166000012584F83C50022084F83D0020688268FF
:1016700022F0770222F47F4282600868502830D03E
:101680000DDC20284DD005DC98B310283BD148E074
:10169000022070BD302844D0402834D139E0602881
:1016A00028D0702806D0B0F5805F2CD0B0F5005F50
:1016B00029D10AE0CB68D1E90121206800F084FE3D
:1016C0002068816841F0770109E0CB68D1E9012108
:1016D000206800F079FE2068816841F480418160D3
:1016E00011E0CA684968206800F080FE5021206837
:1016F00007E016E0CA684968206800F088FE6021AB
:10170000206800F06BFE84F83D50002084F83C0017
:1017100070BDCA684968206800F068FE40212068F2
:10172000EFE7226801461046EBE7704770B50446C4
:10173000006801694FF00005C943890715D4C168E5
:10174000C943890711D4E91E01610120207720686F
:1017500080698007204602D0FFF7E7FF04E000F031
:1017600098F8204600F096F8257720680169C9436B
:10177000490717D4C168C943490713D46FF004015E
:101780000161022020772068806910F4407F2046A4
:1017900002D0FFF7CAFF04E000F07BF8204600F01B
:1017A00079F8257720680169C943090716D4C1680B
:1017B000C943090712D46FF00801016104202077A2
:1017C0002068C0698007204602D0FFF7AEFF04E022
:1017D00000F05FF8204600F05DF825772068016989
:1017E000C943C90617D4C168C943C90613D46FF0E9
:1017F00010010161082020772068C06910F4407F43
:10180000204602D0FFF791FF04E000F042F82046A6
:1018100000F040F8257720680169C943C90708D15D
:10182000C168C943C90704D1891E0161204600F07F
:1018300032F820680169C943090609D4C168C9435F
:10184000090605D46FF0800101612046FFF77EFE96
:1018500020680169C943490609D4C168C9434906DA
:1018600005D46FF040010161204600F015F82068B2
:101870000169C94389060BD4C168C943890607D4E5
:101880006FF0200101612046BDE87040FFF75FBEA8
:1018900070BD7047704770477047FEE77FB5002402
:1018A00016480094019402941349039401604FF484
:1018B00080314160490204618160047680F82040F3
:1018C0000F49C0E90A140125C561C46080F83040A1
:1018D0004561FEF72AFE08B172B6FEE70220CDE9A7
:1018E0000005694602940548FEF776FD002801D000
:1018F00072B6FEE77FBD000000200140100100200D
:101900000100000F70B586B014216846FEF792FC06
:1019100021480024016841F004010160016801F0E0
:1019200004010591016841F080010160016801F046
:1019300080010591016841F001010160016801F039
:1019400001010591016841F008010160016801F0A1
:1019500008010591016841F00201016000680F4E25
:1019600000F002000590002202213046FFF772F8D5
:101970000125CDE90054694630460294FEF78EFFFA
:1019800002200090CDE90154694630460394FEF7E9
:1019900085FF06B070BD00003038024000000240F4
:1019A0000E4810B50C4901604FF48271416000216E
:1019B0008160C1604FF400720161C0E90512C1612C
:1019C0000162416281620A21C162FFF737FD00288E
:1019D00001D072B6FEE710BD00300140F0010020DA
:1019E00010B586B000241748009401940294039423
:1019F00004941349059401600121C0E9011440F2E7
:101A0000D661C0E9031480218161FFF7E9FD08B1C7
:101A100072B6FEE74FF48050009069460948FFF720
:101A200019FE08B172B6FEE7049404A905480594AE
:101A3000FFF78EFD002801D072B6FEE706B010BD9C
:101A4000000800404802002010B50948FEF71AFEC1
:101A50000A210748FEF7C4FD0548FEF763FDC0B242
:101A600000F086FDBDE810400148FEF781BE000091
:101A700010010020FEE7FEE770470A6842624A68EC
:101A80008262D1E902231A43D1E904310B43C16ACE
:101A90001A4321F0F7011143C1620020704700682A
:101AA00000F00300704708444069704770B50DF1BD
:101AB000100C11439CE870002343194329434268EA
:101AC000314347F6FF639A430A434260002070BDEA
:101AD00010B5032101600220FEF7CEFE002010BDEC
:101AE000D0F8800070470A688260D1E901231A4368
:101AF000D1E903310B43C1681A436FF30B01114362
:101B0000C1600020704710B586B004463720CDE98B
:101B1000001040200290002003904FF48060049059
:101B200069462046FFF7DFFF41F288323721204621
:101B300000F026F906B010BD10B504460A4886B07C
:101B400001432920CDE9001040200290002003909D
:101B50004FF48060049069462046FFF7C4FF20469A
:101B600000F0C6F906B010BD0000108010B586B0B8
:101B700004461020CDE90010402002900020039080
:101B80004FF48060049069462046FFF7ACFF41F2B5
:101B900088321021204600F0F3F806B010BD10B5D1
:101BA00086B004460620CDE90010402002900020B7
:101BB00003904FF48060049069462046FFF793FF3E
:101BC00041F288320621204600F0DAF806B010BD56
:101BD00030B585B000240546009401944FF4806030
:101BE0000294CDE9034069462846FFF77CFF0B4885
:101BF0004FF4FA510068B0FBF1F041F288314843EC
:101C0000401E03D24FF0004005B030BD696B09069D
:101C1000F6D5C520A8632046F6E700000C0000209A
:101C200070B585B004464FF4D570009001A9082026
:101C30004025002681E86100C001049069462046E5
:101C4000FFF751FF12484FF4FA510068B0FBF1F072
:101C500041F288314843401E03D24FF0004005B0A6
:101C600070BD616B11F0450FF5D00905F3D4606BC1
:101C7000400701D5042003E0606BC00702D00120BB
:101C8000A063ECE7606B400600D5A5633046E6E74D
:101C90000C00002010B586B004460720CDE90020D6
:101CA00040200290002003904FF480600490694629
:101CB0002046FFF718FF41F288320721204600F046
:101CC0005FF806B010BD10B586B0044600210220B2
:101CD000CDE90010C020CDE902014FF480600490EE
:101CE00069462046FFF7FFFE204600F0D9F806B00F
:101CF00010BD10B586B004460920CDE90010C02003
:101D00000290002003904FF48060049069462046C2
:101D1000FFF7E9FE204600F0C3F806B010BD10B58D
:101D200086B0044600213320CDE900104020CDE9E3
:101D300002010001049069462046FFF7D4FE41F2FB
:101D400088323321204600F01BF806B010BD30B5B4
:101D500085B00C46054600210320CDE90010402047
:101D6000CDE902010001049069462846FFF7BBFE59
:101D700022460321284600F0DDF805B030BD000002
:101D8000454B10B51B684FF4FA54B3FBF4F35343BF
:101D90005B1E02D24FF0004010BD426B12F0450FA7
:101DA000F6D01205F4D4426B520703D504218163A7
:101DB000084610BD426BD20702D00121816305E0C5
:101DC000C52282630269D2B28A4201D0012010BDCD
:101DD0000021FFF768FE3149084201D1002010BD03
:101DE000002802DA4FF0007010BD410001D54020FC
:101DF00010BD810001D5802010BDC10002D54FF477
:101E0000807010BD010102D54FF4007010BD41017A
:101E100002D54FF4806010BDC10102D54FF40060BF
:101E200010BD010202D54FF4805010BD410202D511
:101E30004FF4005010BD810202D54FF4804010BD18
:101E4000C10202D54FF4004010BD410302D54FF44A
:101E5000003010BD810302D54FF4802010BDC103B6
:101E600002D54FF4002010BD010402D54FF48010BC
:101E700010BD410402D54FF4001010BD810402D5FD
:101E80004FF4800010BD000702D54FF4000010BDD4
:101E90004FF4803010BD00000C00002008E0FFFD72
:101EA00012494FF4FA520968B1FBF2F141F288325B
:101EB0005143491E02D24FF000407047426B12F06E
:101EC000450FF6D01205F4D4416B490703D5042120
:101ED000816308467047416BC90703D001218163C4
:101EE00008467047C5218163002070470C00002020
:101EF0000F494FF4FA520968B1FBF2F141F288320E
:101F00005143491E02D24FF000407047426B12F01D
:101F1000450FF6D01205F4D4416B490703D50421CF
:101F2000816308467047C521816300207047000027
:101F30000C00002030B5204B4FF4FA541B68B3FB63
:101F4000F4F341F2883463435B1E02D24FF0004049
:101F500030BD446B14F0450FF6D02405F4D4436B28
:101F60005B0703D504218163084630BD436BDB0763
:101F700002D00121816303E00369DBB28B4201D00F
:101F8000012030BDC52181630021FFF78CFD10F4D5
:101F9000604F04D0410406D54FF4005030BD000C12
:101FA0001080002030BD000402D54FF4805030BDB9
:101FB0004FF4803030BD00000C0000202DE9F04FC0
:101FC00089B00D460446FEF74BFD00268346009679
:101FD0000196374608212068FFF7C8FD002834D154
:101FE000B4F8500001042068FFF78DFD00282CD1C3
:101FF000401E4FF00808CDE9020830204FF00209DA
:10200000CDE904090120CDE9067002A92068FFF797
:1020100034FD2068FFF783FE002816D1EA4640F21F
:102020002A472068416B394212D1416B890204D59D
:10203000FFF756FD4AF82600761CFEF711FDA0EBCF
:102040000B00401CEDD14FF0004009B0BDE8F08F0F
:10205000416B090703D5C0F838800820F5E7416BCC
:10206000890703D5C0F838900220EEE7416B890656
:1020700003D5202181630846E7E740F23A518163A6
:10208000019800BA2860009800BA68600020DCE778
:1020900010B590B004460120ADF838002068FFF775
:1020A000FEFC002854D0606C032842D02068FFF763
:1020B0000AFE00284AD100212068FFF7F4FC60677F
:1020C00004212068FFF7EFFCA06708212068FFF7D4
:1020D000EAFCE0670C212068FFF7E5FCC4F880000B
:1020E000606C032825D00EA92068FFF730FE002879
:1020F0002CD1606C03281CD0BDF838002065010489
:102100002068FFF7F6FD002820D100212068FFF7A6
:10211000CAFC606604212068FFF7C5FCA0660821A0
:102120002068FFF7C0FCE0660C212068FFF7BBFCCD
:10213000206704212068FFF7B6FC000DE06403A9C6
:102140002046FFF71FF830B14FF0805010B010BD9F
:102150004FF08060FAE7B4F85000002302042068D2
:10216000FFF798FD0028F1D104F1100007C88DE8B1
:10217000070094E80F00FFF799FC0020E6E7000055
:102180002DE9F84F0026044600963546B046006813
:10219000FFF71EFD002827D12068FFF741FD4FF013
:1021A000805B4FF001094FF6FF7748B1A6642068C5
:1021B000FFF70EFD002817D1A06C012802D020E007
:1021C000C4F8489000212068FFF79DFC58B918E03A
:1021D00000212068FFF797FC002805D151462068B0
:1021E000FFF7AAFC10B15846BDE8F88F002120681F
:1021F000FFF759FC05464FEAD0780098401C009044
:1022000002E0DFF82CA00098B84202D2B8F1000F2B
:10221000DED00098B84202D34FF08070E4E7680047
:1022200002D5C4F8449000E066640020DCE70000BA
:10223000000010C17047FEF719BC000030B593B024
:1022400030216846FDF7F6FF14210CA8FDF7F2FFD8
:102250001D480025016841F080510160006800F0D0
:10226000805011901948016841F480410160006874
:10227000022400F48040119001200090000401909D
:102280008001CDE9064008AA08204FF4A87182E831
:1022900013000B906846FEF74DFD08B172B6FEE7DD
:1022A0000CA90F2081E831004FF4A0500F904FF49B
:1022B0008050109005210CA8FEF772FC002801D078
:1022C00072B6FEE713B030BD4038024000700040E7
:1022D0000548016841F47001016003494FF0006056
:1022E000803908607047000088ED00E010B50348B1
:1022F000FFF71CFABDE81040FFF7A6BB480200201C
:10230000F0B50268254C264D264E274F274B4FF03F
:10231000804CA04209D0604507D0A84205D0B04209
:1023200003D0B84201D0984204D122F0700E4A681E
:1023300042EA0E02A0421BD0604519D0A84217D035
:10234000B04215D0B84213D0984211D0184DA842CF
:102350000ED0184DA8420BD0174DA84208D0174DEB
:10236000A84205D0164DA84202D0164DA84203D16E
:1023700022F44075CA682A434D6922F080022A433C
:1023800002608A68C2620A688262A04201D09842F2
:1023900001D10969016301214161F0BD00000140E3
:1023A0000004004000080040000C00400004014010
:1023B0000040014000440140004801400018004036
:1023C000001C00400020004010B5846842EA03224F
:1023D00024F47F440A432243826010BD826822F0C5
:1023E00070020A4342F007018160704710B5036A2A
:1023F000046A24F001040462846924F0F00444EACD
:10240000021423F00A020A438461026210BD10B56F
:10241000036A23F0100303628369046A23F47043A0
:1024200043EA023224F0A00343EA0111826101620F
:1024300010BDFEE70907090E002804DB00F1E020CB
:1024400080F80014704700F00F0000F1E02080F8E1
:10245000141D704702E008C8121F08C1002AFAD1F3
:1024600070477047002001E001C1121F002AFBD114
:1024700070470000084B0022D3E90046DD689968E8
:102480004F1CB74201D1214600E0491C99602978D0
:102490008154521CD2B2F2E78803002007498868B1
:1024A0004B68421C9A4201D1086800E0401CC96890
:1024B000884201D101207047002070478803002026
:1024C0001CB5FEF7DBFAFFF7B9FEFFF71BFAFFF7C3
:1024D000E5F9002423490094214801940860084646
:1024E000FEF785F908B172B6FEE70094002269464E
:1024F0001C480194FEF75AF908B172B6FEE71022A3
:1025000069461848FEF752F908B172B6FEE7154859
:1025100015491430C0E900148460C460046144614A
:102520008461FEF7FBFE08B172B6FEE70D484FF47A
:1025300000611430FEF7ACFD08B172B6FEE7FFF79C
:102540002FFAFFF74DFA4FF47A7400BFFFF7A6FF9A
:1025500010B10648FFF78EFF2046FEF78DF9F5E72C
:102560000074004058010020002C014010000020A1
:10257000054988684B68421C9A4201D1086800E00E
:10258000401C8860704700008803002000000000A5
:10259000000000000102030406070809BC2500082A
:1025A000000000201000000054240008CC25000882
:1025B00010000020880700006424000801000000CB
:0C25C00010000000000000000024F400E7
:040000050800018965
:00000001FF
