:020000040800F2
:10000000A8060020A1010008E314000891140008CC
:10001000E1140008AD0200081119000800000000FA
:10002000000000000000000000000000191500089A
:10003000D103000800000000E5140008491500087D
:10004000BB010008BB010008BB010008BB010008A0
:10005000BB010008BB010008BB010008BB01000890
:10006000BB010008BB010008BB010008BB01000880
:1000700015030008BB010008BB010008BB01000814
:1000800021030008BB010008BB010008BB010008F8
:10009000BB010008BB010008BB010008BB01000850
:1000A000BB010008BB010008BB010008BB01000840
:1000B000BB010008BB010008BB010008BB01000830
:1000C000BB010008BB010008BB010008BB01000820
:1000D000BB010008BB010008BB010008BB01000810
:1000E000BB010008BB010008BB010008BB01000800
:1000F000BB010008BB010008BB010008BB010008F0
:10010000BB010008BB010008BB010008BB010008DF
:10011000BB010008BB010008BB010008BB010008CF
:10012000BB010008BB010008BB010008BB010008BF
:10013000BB010008BB010008BB010008BB010008AF
:10014000BB010008BB010008BB010008BB0100089F
:10015000BB010008BB010008BB010008BB0100088F
:10016000BB010008BB010008BB010008BB0100087F
:10017000BB010008BB010008BB0100080000000033
:10018000BB010008BB010008DFF810D000F07CF8CC
:100190000048004751190008AFF30080A80600206E
:1001A0000648804706480047FEE7FEE7FEE7FEE711
:1001B000FEE7FEE7FEE7FEE7FEE7FEE7E1150008E3
:1001C000890100082DE9F05F0546002092469B4614
:1001D00088460646814640241BE02846414647465D
:1001E000224600F041F853465A46C01A914110D3B6
:1001F00011461846224600F028F82D1A67EB010830
:100200004F4622460120002100F01FF817EB00099D
:100210004E41201EA4F10104DFDC484631462A4647
:100220004346BDE8F09FD2B201E000F8012B491E21
:10023000FBD270470022F6E710B513460A46044683
:100240001946FFF7F0FF204610BD202A04DB203AB4
:1002500000FA02F1002070479140C2F1200320FA19
:1002600003F3194390407047202A04DB203A21FA17
:1002700002F00021704721FA02F3D040C2F12002BF
:100280009140084319467047064C074D06E0E06868
:1002900040F0010394E8070098471034AC42F6D3CD
:1002A000FFF776FF301B0008501B0008FEE710B573
:1002B000846B204600F0B3F80120207110BD10B50A
:1002C000846B204600F087F80120207110BD10B526
:1002D000846B206940F004002061204600F0A1F802
:1002E0000120207110BD10B5846B206940F004001E
:1002F0002061204600F071F80120207110BD10B57A
:10030000806B00F08DF810BD10B5806B00F064F8C4
:1003100010BD0000014800F067B90000480200204D
:10032000014800F061B90000E801002001681823CD
:10033000CAB2103AB2FBF3F2054B6FF30901032A7C
:100340009B5CC36500D9091D8165084670470000A4
:100350000D1B000810B5014600208B698A6A4FF01A
:10036000C07453B1B3F5005F15D072B1012A0CD03F
:10037000022A0AD0032A09D104E01AB1012A06D0C0
:10038000022A03D1C96AC90100D5012010BDC96A7A
:10039000A142FAD010BD002AF7D0012AF2D0022AD9
:1003A000F3D0032AF3D010BD30B50468256825F4D6
:1003B00080252560046863608368402B036803D050
:1003C00099600068C26030BD9A600068C16030BD4D
:1003D000704772B6FEE770477047704770B5437953
:1003E000012B1AD0012646710223037105682C687F
:1003F00040F6FE7393409C43D1E900310B43934098
:1004000023432B6001680B68C0249440A3430B6016
:10041000067100214171084670BD022070BD704711
:100420007047704770B5040003D02079002510B1E3
:1004300005E0012070BD6571204600F007F802203C
:100440002071256101202071002070BD70B586B03B
:10045000064614216846FFF7EDFE1E4930688842C3
:1004600035D11D480025016841F000510160006848
:1004700000F00050059018481038016841F0010163
:1004800001600068694600F00100059010200090AE
:100490000320CDE90105114800F018FA114C10486D
:1004A00020604FF0606060604020C4E902050001F8
:1004B000C4E904058010C4E906502562204665623F
:1004C00000F062F908B1FFF784FFB460A66306B0DC
:1004D00070BD00000074004040380240000002403F
:1004E00088600240E80100202DE9F04104460D46F5
:1004F0001746617900220698012920D001266671ED
:1005000002212171F5B1D4F80CC03149CCF83C106E
:10051000D4F80CC02F49CCF84010D4F80CC02E49A8
:10052000CCF84C102168D1F800C04CF0805CC1F8C8
:1005300000C090B3042834D0082837D134E002201A
:10054000BDE8F081D4F808C02449CCF83C10D4F8B8
:1005500008C02349CCF84010D4F808C02149CCF891
:100560004C102168D1F800C04CF4805CC1F800C088
:1005700020B1042805D0082808D105E022680832F7
:1005800004E022680C3201E0226810322068016821
:1005900041F400510160A0680EE0FFE722681432C8
:1005A00004E02268183201E022681C3220680168E9
:1005B00041F000510160E068394600F04FF92068D1
:1005C0000168AE403143016000206071B8E700006F
:1005D000BF02000809030008E7020008AF02000894
:1005E000FF020008CF0200082DE9F84304464FF04F
:1005F0000009CDF8009063484FF41651A56D0068CE
:10060000B0FBF1F72E6894F85C10082000FA01F1B5
:1006100031420FD021680A6852070BD50A6822F0D0
:1006200004020A6094F85C108840A860606D40F095
:100630000100606594F85C104FF0010808FA01F0C1
:10064000304208D021684969090604D5A860606D68
:1006500040F00200606594F85C100420884030424D
:1006600008D021680968890704D5A860606D40F04A
:100670000400606594F85C1010208840304218D067
:1006800021680968090714D5A86020680168490332
:1006900004D50068000308D5A16C07E00168C9050E
:1006A00003D4016821F008010160216C09B12046E2
:1006B000884794F85C1020208840304231D021686F
:1006C0000968C9062DD5A86094F83500052820686A
:1006D000016806D0490347D5006800031DD4616C4A
:1006E0001CE021F0160101602068416921F08001C1
:1006F0004161206C08B9A06C20B12068016821F02C
:100700000801016094F85C103F208840A86084F8DC
:10071000349084F83580216D1FE0E16B09B12046EB
:100720008847606D00282BD0606DC00714D005206D
:1007300084F835002068016821F00101016000980B
:10074000401C0090B84203D820680068C007F6D16A
:1007500084F8349084F83580E16C002910D001B021
:100760002046BDE8F04308470168C905D5D40168B3
:1007700021F01001016084F8349084F83580CCE7D2
:10078000BDE8F883100000202DE9F041044600F098
:1007900079F906465CB1002584F83450022084F8CB
:1007A00035002068016821F0010101600DE00120A1
:1007B000BDE8F08100F066F9801B052805D92020EE
:1007C0006065032084F83500F2E720680068C00700
:1007D000F0D12268116820480140D4E90103184390
:1007E000D4E903363343184363691843A3691843B4
:1007F000E3691843236A18430843616A042903D153
:10080000D4E90B1319430843106020684069666AF5
:1008100020F0070130460E43012704280CD1A06ABE
:100820000643E06A40B12046FFF794FD20B1402026
:10083000606584F83570BAE7206846612046FFF7A6
:1008400075FD94F85C203F2191408160656584F8D6
:1008500035700020ACE700003F8010F02DE9F0413A
:100860000446866D90F83400002501280DD0012043
:1008700084F8340094F835700020012F07D084F8F4
:10088000340002252846BDE8F0810220FBE702275C
:1008900084F8357060652046FFF786FD94F85C109B
:1008A0003F208840B0602068016841F01601016077
:1008B000206C20B12068016841F0080101602068C7
:1008C000016841F001010160DCE700002DE9F84F0B
:1008D00000224FF0010803254FF00F0E0B6808FAB5
:1008E00002F42340A3426ED14E68012E05D0022EA1
:1008F00003D0112E01D0122E12D186684FEA420C7D
:1009000005FA0CF7BE43CF6807FA0CF73743876048
:100910004668A6430C79C4F3001494403443446001
:10092000C668570005FA07FC8C6826EA0C06BC402E
:100930003443C4604C68022C01D0122C13D1D4086B
:1009400000EB8404A346D4F8209054074FEAD46AFD
:100950000EFA0AF629EA06090E6906FA0AF646EAC6
:100960000906CBF8206006680C7926EA0C0604F02C
:100970000304BC40344304604C68E40065D5364C45
:10098000266846F480462660246822F0030604F4B4
:1009900080440094314C3444A446D4F80848960767
:1009A000370F0EFA07F6B4432D4EB04201D10026A0
:1009B00024E02C4EB04201D101261FE02A4EB04265
:1009C00002D102261AE040E0284EB04201D10326AF
:1009D00014E0274EB04201D104260FE0254EB0426C
:1009E00001D105260AE0244EB04201D1062605E0D9
:1009F000224EB04201D1072600E00826BE40264321
:100A0000CCF808681E4E34684F689C43FF0300D53D
:100A10001C4334601A4C241D26684F689E43BF0354
:100A200000D51E432660164E083634684F689C4336
:100A3000FF0200D51C433460114E0C3634684F68F9
:100A40009C43BF0200D51C433460521C102AFFF4A3
:100A500045AFBDE8F88F0000443802400030014047
:100A6000000002400004024000080240000C024066
:100A7000001002400014024000180240001C024016
:100A8000003C0140014880687047000004000020DD
:100A90000248816802781144816070470400002098
:100AA0000B4810B5016841F400710160016841F420
:100AB00080610160016841F480710160032000F0F1
:100AC0006FF8002000F006F800F024F8002010BDB8
:100AD000003C024070B50D4D04464FF47A71287801
:100AE000B1FBF0F00A490968B1FBF0F000F002FB3D
:100AF00048B9102C07D200222146501E00F030F8D1
:100B000000206C6070BD012070BD0000040000205A
:100B1000100000200A4808B5016841F480410160D6
:100B2000006800F4804000900548001F016841F013
:100B300080510160006800F08050009008BD000006
:100B400044380240002809DB00F01F0201219140D7
:100B50004009800000F1E020C0F80011704700005B
:100B6000F0B40E4B1B680C46C3F30223C3F1070518
:100B7000042D00D90425191D072901D2002300E006
:100B8000DB1E012606FA05F1491E214099409E40D0
:100B9000761E16403143F0BC00F0BBBE0CED00E009
:100BA000064900F0070208684FF6FF03184040EAC4
:100BB0000220034A10430860704700000CED00E07B
:100BC0000000FA052DE9F0470E46050065D0DFF874
:100BD0001481D8F80000F7B200F00F00B04207D23D
:100BE00088F80070D8F8000000F00F00B04254D12F
:100BF00028683D4C810712D5400703D5206840F492
:100C0000E05020602878000703D5206840F4604059
:100C100020602068A96820F0F00008432060287850
:100C2000C0072DD0304968680839012812D0022841
:100C300013D0032811D00968890700292DDA21680B
:100C400021F0030101432160FFF71CFF814641F2BF
:100C5000883A0EE009688903EFE709688901ECE743
:100C6000FFF710FFA0EB0901514502D90320BDE8B1
:100C7000F0872068696800F00C00B0EB810FEFD1BD
:100C8000D8F80010404601F00F01B14207D90770B3
:100C9000006800F00F00B04201D00120E7E728789B
:100CA000400705D52068E96820F4E050084320603B
:100CB0002878000706D52068296920F4604040EABA
:100CC000C100206000F038F82168084AC1F3031120
:100CD000515CC8400649086006480068FFF7FAFE04
:100CE0000020C4E7003C024008380240151B000801
:100CF0001000002008000020044805490068096829
:100D0000044AC1F38221515CC840704710000020A2
:100D100008380240251B0008044805490068096896
:100D2000044AC1F34231515CC840704710000020B2
:100D300008380240251B0008154810B5006810F05F
:100D40000C02144813D04110042A0FD0082A0ED1E7
:100D50000F4C241F2268236802F03F025B0207D574
:100D60002068C0F38810A0FB010106E0084610BD12
:100D70002168C1F38811A1FB00010023FFF722FACB
:100D80002168C1F30141491C4900B0FBF1F010BDDD
:100D9000083802400024F4002DE9F84F04006ED01A
:100DA0002078DFF83C93C007A9F104054AD009F187
:100DB00004000168C1F38101012908D00068C0F373
:100DC000810002280AD1D9F80000400206D528681F
:100DD000800337D560680028E1D033E06068B0F563
:100DE000803F10D0B0F5A02F286810D020F48030BC
:100DF0002860286820F4802028606068A8B1FFF788
:100E000041FE06460DE0286840F48030F4E740F4E7
:100E100080202860F7E700BFFFF734FE801B6428BE
:100E200073D828688003F7D50CE0FFF72BFE064641
:100E300005E000BFFFF726FE801B6428F0D8286875
:100E40008003F7D42078DFF89C8280074FF0000AF7
:100E50003ED5A348001D016811F00C0F08D00068B2
:100E6000C0F3810002280BD1D9F80000400207D45A
:100E70002868800716D5E068012800D112E02BE130
:100E8000E068B8B10120C8F80000FFF7FBFD064696
:100E900005E000BFFFF7F6FD801B0228C0D82868D8
:100EA0008007F7D52868216920F0F80040EAC100E2
:100EB00028600DE0C8F800A0FFF7E4FD064604E056
:100EC000FFF7E0FD801B02281FD828688007F7D4B1
:100ED0002078000722D5824E83486169703671B14F
:100EE00001210160FFF7CEFD074604E0FFF7CAFDD0
:100EF000C01B022809D830688007F7D50EE0C0F87B
:100F000000A0FFF7BFFD074605E082E0FFF7BAFD4E
:100F1000C01B02287DD830688007F7D420784007AE
:100F200068D5DFF8BCB100270BF13C0BDBF8000003
:100F3000C0000BD4DBF8001041F08051CBF800105A
:100F4000DBF80000012700F080500090674E306809
:100F5000C00510D4306840F480703060FFF792FD17
:100F6000009005E0FFF78EFD0099401A022850D846
:100F70003068C005F6D55A4EA0686C3601280FD0EF
:100F80000528306810D020F001003060306820F073
:100F900004003060A068B8B1FFF774FD00900FE066
:100FA000306840F00100F4E740F004003060F7E7FB
:100FB000FFF768FD0099411A41F28830814266D8F6
:100FC00030688007F4D50EE0FFF75CFD009007E085
:100FD000FFF758FD0099411A41F28830814256D8F6
:100FE00030688007F4D42FB1DBF8001021F0805175
:100FF000CBF80010A069C8B33949091D0968C1F3CD
:10100000810102294AD00228504607D0C8F8600062
:1010100000E03CE0FFF736FD04463BE04746C8F8F9
:101020006000FFF72FFD064605E000BFFFF72AFD31
:10103000801B02282BD828688001F7D4D4E9070147
:101040000843A16A2A4A490802EB0141626A41EA5F
:101050008211084394F82C1040EA0161C9F800108D
:1010600001203866FFF70EFD044606E036E000BFBB
:10107000FFF708FD001B022809D828688001F7D572
:101080002CE000BFFFF7FEFC001B022802D9032062
:10109000BDE8F88F28688001F4D41FE00128F7D05C
:1010A000D9F80000E26900F48001914214D1226A6B
:1010B00000F03F0191420FD147F6C071626A0140D2
:1010C000914209D1A26A00F44031914204D1E16A0F
:1010D00000F07060884201D00120D9E70020D7E7F6
:1010E0000438024000004742800E47420070004032
:1010F0000000FFFF10B5401EB0F1807F01D301203A
:1011000010BD4FF0E02460610F21601700F001FC7A
:101110000020A06107202061002010BD70B590F86C
:101120003C20012A32D0012480F83C40022280F881
:101130003D2003685A689D6822F070060A683243B1
:101140005A60134B02689A4214D0B2F1804F11D00A
:10115000104B9A420ED0104B9A420BD00F4B9A4232
:1011600008D00F4B9A4205D00E4B9A4202D00E4B3C
:101170009A4204D1496825F080031943916080F8B0
:101180003D40002180F83C10084670BD022070BD33
:10119000000001400004004000080040000C004036
:1011A00000040140004001400018004010B5040058
:1011B00003D094F83D0010B107E0012010BD0020DD
:1011C00084F83C00204600F00DF8022084F83D0031
:1011D000211D206800F012FA012084F83D00002053
:1011E00010BD000008B500680649884208D10648CD
:1011F000016841F010010160006800F010000090EB
:1012000008BD00000010004040380240022180F874
:101210003D1001688A6802F00702062A03D00A68B6
:1012200042F001020A60012180F83D100020704761
:10123000704770B5040004D094F83900002510B14F
:1012400006E0012070BD84F83850204600F022F8F6
:10125000242084F839002068C16821F40051C1605D
:10126000204600F08FFA2068016921F49041016165
:101270002068416921F02A0141612068C16841F478
:101280000051C160E563202084F8390084F83A00F9
:10129000002070BD70B586B0064614216846FEF782
:1012A000C9FF2049306888423AD11F4800250168AB
:1012B00041F480210160006800F4802005901A4804
:1012C0001038016841F0020101600068694600F0D1
:1012D000020005904FF4406000900220CDE9010526
:1012E00003200390072004901048FFF7EFFA114CF9
:1012F0000F4820604FF00060C4E901054014C4E9C4
:10130000035080106561C4E906500002C4E9080575
:101310002046FFF739FA08B1FFF75BF87463A6635C
:1013200006B070BD00480040403802400004024052
:101330002860024048020020F8B5044690F83A00C0
:1013400020283CD1C1B3BAB394F83800012836D074
:10135000012084F83800A162A2850025E5632220DF
:1013600084F83A00636B1748D863636B16481864B7
:10137000636B1648D864606B134605650846666B58
:10138000216802463046091DFFF768FA20680168A7
:101390004168009184F83850C16841F48071C1609F
:1013A0002068416941F0010141612068416941F0D3
:1013B000400141610020F8BDFFE70120FBE702206A
:1013C000F9E700000F1700084B170008C5160008C2
:1013D00000BF704770472DE9F843044690F8390084
:1013E0001F4616460D46202850D1B5B1AEB194F82F
:1013F000380001284AD0012084F838004FF0000856
:10140000C4F83C80212084F83900FFF73BFBA68418
:101410008146E68484F8388026E00120BDE8F88320
:10142000E08C401EE084A0684B46B0F5805F4FF032
:1014300000024FF080012046009703D000F036FAFA
:10144000E8B90DE000F032FAC8B928882168C0F385
:1014500008004860206908B16D1C05E0AD1C03E080
:10146000216815F8010B4860E08C0028D8D14B4664
:10147000002240212046009700F018FA08B103200E
:10148000CCE7202084F839000020C7E70220C5E718
:10149000FEE70000114808B5016841F00401016051
:1014A000016801F004010091016841F080010160D0
:1014B000016801F080010091016841F001010160C3
:1014C000016801F001010091016841F00201016031
:1014D000006800F00200009008BD000030380240B3
:1014E000FEE7FEE77047002101E000F8011B0278EB
:1014F000002AFAD1704710B5044600F0D1FA48B17D
:1015000000210D2802D1012010BD491C625C002A77
:10151000FBD16054002010BD70470000084900EB6B
:101520008010B1FBF0F0074910B5401EC8600846B6
:10153000FFF73CFE002801D072B6FEE710BD0000A8
:1015400000BD010568010020FFF7A2BA30B593B0D5
:1015500030216846FEF76EFE14210CA8FEF76AFEE5
:101560001D480025016841F080510160006800F0CD
:10157000805011901948016841F480410160006871
:10158000022400F48040119001200090000401909A
:101590008001CDE9064004200890A820CDE9090487
:1015A00008200B906846FFF7F7FB08B172B6FEE71C
:1015B0000CA90F2081E831004FF4A0500F904FF498
:1015C0008050109005210CA8FFF7FCFA002801D0EC
:1015D00072B6FEE713B030BD4038024000700040E4
:1015E0000548016841F47001016003494FF0006053
:1015F000803908607047000088ED00E0F0B50268AF
:10160000254C264D264E274F274B4FF0804CA042AD
:1016100009D0604507D0A84205D0B04203D0B842F7
:1016200001D0984204D122F0700E4A6842EA0E02BC
:10163000A0421BD0604519D0A84217D0B04215D0A7
:10164000B84213D0984211D0184DA8420ED0184D70
:10165000A8420BD0174DA84208D0174DA84205D07C
:10166000164DA84202D0164DA84203D122F440756F
:10167000CA682A434D6922F080022A4302608A68C0
:10168000C2620A688262A04201D0984201D109690F
:10169000016301214161F0BD0000014000040040F0
:1016A00000080040000C00400004014000400140E0
:1016B000004401400048014000180040001C004068
:1016C0000020004070B5846B2068406994F83910A0
:1016D000C0F3C0100025212904D118B1E5842046AB
:1016E00000F046F82068406994F83A10C0F3801082
:1016F000222904D118B1E585204600F02BF8E06BD3
:1017000040F01000E0632046FFF792FD70BD10B579
:101710000146806B09680968C90513D40021C18599
:101720000168CA6822F48072CA6001684A6922F0BE
:1017300001024A6101684A6922F040024A6120219F
:1017400080F83A10FFF744FE10BD10B5806BFFF72C
:1017500041FE10BD0168CA6822F49072CA60016837
:101760004A6922F001024A61202180F83A1070474C
:101770000168CA6822F0C002CA60202180F83910CE
:10178000704700002DE9F041044600680169E268F5
:1017900021F44051114301612169A068E2690843C5
:1017A0006169114308432168CA6849F20C639A438E
:1017B0000243CA6020684169A26921F44071114363
:1017C0004161E069192764253226B0F5004F354A9A
:1017D000354920684FF0000806D0884201D0904279
:1017E00036D1FFF799FA35E0884201D0904202D114
:1017F000FFF792FA01E0FFF77FFA61684A18A0FB51
:10180000070148EB0803FEF7DDFC0146B0FBF5F0ED
:101810000201B1FBF5F06FF01803584301EB8000B3
:1018200006EBC000B0FBF5F000F0F80002EB400260
:10183000B1FBF5F0584301EB800006EBC000B0FBB4
:10184000F5F000F00700216810448860BDE8F081E1
:10185000FFF752FA61688B0F8A00A0FB0701FEF7C1
:10186000B1FC0146B0FBF5F06FF01802504301EBFC
:10187000800006EB0010B0FBF5F000F0F002B1FBC9
:10188000F5F002EB0012B1FBF5F06FF018035843CE
:1018900001EB800006EB0010B0FBF5F000F00F004C
:1018A000D1E7000000140140001001402DE9F04193
:1018B000984617460E460446069D1DE0681C1BD040
:1018C0002DB1FFF7DFF8A0EB0800A84214D920687B
:1018D000C16821F4D071C1602068416921F0010123
:1018E0004161202084F8390084F83A00002084F80F
:1018F00038000320BDE8F0812068006836EA000067
:1019000004D00020B842D9D00020F3E70120F9E745
:10191000FEE70907090E002804DB00F1E02080F84B
:101920000014704700F00F0000F1E02080F8141D53
:10193000704702E008C8121F08C1002AFAD1704798
:101940007047002001E001C1121F002AFBD170473F
:101950001CB5FFF7A5F8FFF7F9FDFFF79BFD494818
:101960000024016841F4001101600068224600F47F
:101970000010009021460C20FFF7F2F80C20FFF732
:10198000E1F8002211461020FFF7EAF81020FFF7D7
:10199000D9F83E4900943C48019408600846FEF797
:1019A00041FD08B172B6FEE70420CDE90004002233
:1019B00069463648FEF712FD08B172B6FEE73348B5
:1019C0000094143032490194C0E9001441F2983176
:1019D000C0E9024180218161FFF7E8FB08B172B6DE
:1019E000FEE72020CDE90004284869461430FFF7BF
:1019F00095FB08B172B6FEE72448264954300160D1
:101A00004FF49641C0E901140C21C460C0E90441BF
:101A10008461C461FFF70DFC08B172B6FEE71E4891
:101A2000FFF761FD19481430FFF7F0FB0820009024
:101A300041231A4A00211548FEF756FD16494FF476
:101A4000807201F5CA70FFF777FC104964234039B2
:101A5000202201F19400FFF7BEFC4FF4C870FFF79D
:101A60005DFD4FF47A60FFF759FD4FF41D70FFF7ED
:101A700055FD06482038FFF73EFD0128F9D100BF8B
:101A8000F7E70000303802400074004054010020A5
:101A9000001000400048004014000020CC1A00084C
:101AA00010B50848084904680A68A05C002807D0F7
:101AB0000023A3540A68521C0A60FF2A00DD0B6051
:101AC00010BD000014000020000000207F8B97A3B1
:101AD000AFBAC5CFD8E1E8EFF4F8FBFDFEFDFBF8A7
:101AE000F4EFE8E1D8CFC5BAAFA3978B7F73675BFC
:101AF0004F44392F261D160F0A0603010001030665
:101B00000A0F161D262F39444F5B67737F0006109E
:101B1000160006101600000000000000000102037D
:101B20000406070809000000000102030400000089
:101B3000501B0008000000201400000032190008AB
:101B4000641B0008140000209406000042190008DD
:101B50000000000001000000100000000000000074
:041B60000024F40069
:040000050800018965
:00000001FF
