:020000040800F2
:10000000F0050020A1010008112B000803290008B9
:100010000D2B0008A1070008CD32000800000000E9
:10002000000000000000000000000000A72B0008F6
:100030009B0A000800000000152B0008852C000812
:10004000BB010008BB010008BB010008BB010008A0
:10005000BB010008BB010008BB010008BB01000890
:10006000BB010008BB010008BB010008BB01000880
:10007000BB010008BB010008BB010008BB01000870
:1000800081090008BB010008BB010008BB01000892
:10009000BB010008BB010008BB010008BB01000850
:1000A000BB010008BB010008BB010008BB01000840
:1000B000BB010008BB010008BB010008BB01000830
:1000C000BB010008BB010008BB010008BB01000820
:1000D000BB010008BB010008BB010008BD320008DD
:1000E000BB010008BB010008BB010008BB01000800
:1000F000BB010008BB010008BB010008BB010008F0
:10010000BB010008BB010008BB010008BB010008DF
:10011000BB010008BB010008BB010008BB010008CF
:10012000BB010008BB010008BB010008BB010008BF
:10013000BB010008BB010008BB010008BB010008AF
:10014000BB010008BB010008BB010008BB0100089F
:10015000BB010008BB010008BB010008BB0100088F
:10016000BB010008BB010008BB010008BB0100087F
:10017000BB010008BB010008BB0100080000000033
:10018000BB010008BB010008DFF810D000F0E4FA62
:100190000048004721390008AFF30080F005002037
:1001A0000648804706480047FEE7FEE7FEE7FEE711
:1001B000FEE7FEE7FEE7FEE7FEE7FEE7612D00084B
:1001C000890100082DE9F05F0546002092469B4614
:1001D00088460646814640241BE02846414647465D
:1001E000224600F0F4F853465A46C01A914110D303
:1001F00011461846224600F0DBF82D1A67EB01087D
:100200004F4622460120002100F0D2F817EB0009EA
:100210004E41201EA4F10104DFDC484631462A4647
:100220004346BDE8F09FD2B201E000F8012B491E21
:10023000FBD270470022F6E710B513460A46044683
:100240001946FFF7F0FF204610BD421C10F8011BB5
:100250000029FBD1801A704710B5002200E0521C23
:10026000835C8C5CA34201D1002BF8D1D8B2E1B2FF
:10027000401A10BD2DE9FE4F81EA030404F000444A
:1002800021F0004100944FF0000B23F0004350EAAE
:1002900001045ED052EA03045BD0C3F30A54C1F3F5
:1002A0000A552C44A4F2F3340194A0FB0254C1F388
:1002B000130141F48011C3F3130343F4801301FBD2
:1002C000024400FB034E840A970A44EA815447EA39
:1002D0008357A4FB076802958D0A05FB07854FEA43
:1002E000932C04FB0C542705029D4FEA065847EA5D
:1002F0001637B5EB08056EEB070C870E920E47EA32
:10030000811742EA8312A7FB0201B6EB0B0164EBF3
:1003100000042B0D43EA0C335E1844EB1C50DA4604
:100320005146E7FB0201C5F313044FEA0B3343EADE
:1003300014534FEA0432019C43EA0603A4F10C046F
:100340000294009CCDE900B400F060F803B0BDE871
:10035000F08F00200146F9E70EB540F233410291DB
:100360000021CDE900110A460B4600F04FF803B01A
:1003700000BD70B5C1F30A5201F000450024C1F37D
:10038000130140F2FF3341F480119A4201DA002058
:1003900070BD40F233439A42A2F2334203DC524230
:1003A00000F015F800E090402C43F1D0404270BDC1
:1003B000202A04DB203A00FA02F100207047914025
:1003C000C2F1200320FA03F3194390407047202A1A
:1003D00004DB203A21FA02F00021704721FA02F3EF
:1003E000D040C2F12002914008431946704710B531
:1003F000141E73F1000408DA401C41F10001921848
:100400005B411A4301D120F0010010BD2DE9F04DF0
:1004100092469B4611B1B1FA81F202E0B0FA80F245
:1004200020329046FFF7C4FF04460F4640EA0A0018
:1004300041EA0B0153465A46084313D0114653EA8A
:10044000010019D0C8F140025046FFF7C0FF054631
:100450000E46504659464246FFF7AAFF084305D0CC
:10046000012004E020463946BDE8F08D0020054318
:1004700046EAE0762C4337430A986305E40AA0EB8A
:1004800008000022FD0A44EA47540A3002D5002041
:100490000146E9E7010510196941DDE90845001940
:1004A0006941BDE8F04DA2E72DE9FE4F804681EAA3
:1004B0000300C00F0C46009021F0004123F00045DE
:1004C000B8EB0200A94105D24046214690461C46A1
:1004D0000B46024623F00040104347D0270DC7F3D8
:1004E0000A00C3F30A510290401A019040286BDAC7
:1004F000C3F3130040F4801B0098924620B1002300
:10050000D2EB030A63EB0B0B01985946C0F1400292
:100510005046FFF74DFF06460D4650465946019A94
:1005200000F02CF910EB08006141002487EA115219
:1005300084EAE7731A4340D0009A62B3019A012A11
:100540004FEA075215DC001B61EB02014FF000423D
:1005500002EA0752CDE90042001C41F58011324603
:100560002B46FFF753FF03B0BDE8F08F404621460E
:10057000F9E7001B61EB0201001C41F58013001834
:100580005B412018A2F5001747EB030140EAD57044
:10059000B6196D4111E06D084FEA360645EAC0759F
:1005A0004FEA0752001B61EB0201001C41F580116C
:1005B00049084FEA30000019514132462B4603B03A
:1005C000BDE8F04FFFF713BF009801224000002361
:1005D000D0EB020263EBE073009821464FEAE0742F
:1005E000B8EB000061EB0401E9E783F000435BE74F
:1005F00081F0004158E72DE9F04D81EA030404F051
:10060000004B21F0004514464FF0000A23F0004152
:1006100050EA050220D054EA01021DD0C5F30A5762
:100620000246C5F31303C1F31300C1F30A5640F4A5
:10063000801543F48013A7EB0608101BD64608F27A
:10064000FD3873EB050002D308F1010801E09218B0
:100650005B41B8F1000F03DA00200146BDE8F08DE0
:1006600000204FF48011064684460EE0171B73EB02
:10067000050705D3121B63EB050306434CEA010C87
:1006800049084FEA300092185B4150EA0107EDD16A
:1006900052EA030012D082EA040083EA050108430B
:1006A00005D0101BAB4106D20122002306E0002238
:1006B0004FF0004302E06FF0010253101AEB060006
:1006C0004CEB085110EB0A0041EB0B01BDE8F04D7B
:1006D000FFF78DBE0EB5C10F80EAE0700844CA076F
:1006E000002140F233438DE80E000A460B46FFF727
:1006F0008DFE03B000BD000030B5041E71F1000492
:1007000004DB4FF00044404264EB0101141E73F11E
:10071000000405DB1C464FF00043524263EB040328
:100720008B4208BF824230BD30B5041E71F1000417
:1007300004DB4FF00044404264EB0101141E73F1EE
:10074000000405DB1C464FF00043524263EB0403F8
:10075000994208BF904230BD064C074D06E0E06864
:1007600040F0010394E8070098471034AC42F6D3F8
:10077000FFF70EFD703B0008903B0008202A06DBC7
:10078000CB17203A41FA02F043EAE07306E041FA5F
:1007900002F3D040C2F1200291400843194670474D
:1007A00000BFFEE730B52DED088B85B00546002073
:1007B000039004900124062045490870FA20454919
:1007C000086040004449086003204449087000BFA5
:1007D00003AA2146284603F05AF803A8FFF735FD7F
:1007E000002840D0002002900190601CC4B202AAF0
:1007F00001A903A803F02FF839A101A8FFF72CFDE8
:1008000028B902A803F0E0F8314908702AE035A1C0
:1008100001A8FFF721FD40B902A803F0D5F800EBCD
:10082000800040002B4908601CE02FA101A8FFF7C1
:1008300013FD40B902A803F0C7F800EB80004000A8
:10084000254908600EE029A101A8FFF705FD28B998
:1008500002A803F0B9F82149087003E005B0BDEC27
:10086000088B30BD00BF03A8FFF7EFFC0028AFD115
:1008700017480078FFF770FD41EC1B0B9FED1C0B38
:1008800053EC102BFFF7F6FC41EC1A0BB0EE4A0AC2
:10089000F0EE6A0A02F050FDB0EE409AF0EE609A77
:1008A0009FED150B53EC102B51EC190BFFF7E2FCED
:1008B00041EC180BFFF75DFD1149086000F0B8FD31
:1008C0001049086001201049087000BFC6E7000009
:1008D00021000020280000202C00002030000020F3
:1008E00046000000500000005700000042000000D9
:1008F000F2D24D621058B9BF00000000000EB540A2
:1009000024000020340000203100002070B504468F
:10091000A56B284600F0F9F80120287170BD70B56C
:100920000446A56B284600F0BCF80120287170BD74
:1009300070B50546AC6B206940F00400206120468C
:1009400000F0E5F80120207170BD70B50546AC6B74
:10095000206940F004002061204600F0A4F8012046
:10096000207170BD70B50446A56B284600F0CEF826
:1009700070BD70B50446A56B284600F093F870BDB5
:1009800010B5024800F072FA10BD0000C40000204B
:100990000146087810381823B0FBF3F20848805C51
:1009A000C865032A05D908686FF30900001D88652A
:1009B00003E008686FF309008865886D70470000E0
:1009C000F53A0008014600208A6A8B69CBB932B13A
:1009D000012A0DD0022A03D0032A10D10EE000BF55
:1009E000CB6A03F08073B3F1807F00D1012007E070
:1009F000CB6AB3F1C07F00D1012001E000E000BF6D
:100A000034E08B69B3F5005F1AD132B1012A07D007
:100A1000022A03D0032A11D10AE000BF01200EE010
:100A2000CB6A03F08073B3F1807F00D1012006E030
:100A3000CB6AB3F1C07F00D1012000E000BF15E018
:100A400032B1012A05D0022A04D0032A0CD103E0D6
:100A500000BF00BF012008E0CB6A03F08073B3F150
:100A6000807F00D1012000E000BF00BF704730B59B
:100A70000468246824F4802405682C60046863609A
:100A80008468402C04D10468A2600468E16003E03B
:100A90000468A1600468E26030BD704772B600BFB0
:100AA000FEE7704770477047F0B5034600BF5879BE
:100AB000012801D10220F0BD0120587100BF0220A1
:100AC00018711868046802F0100640F6FE70B04015
:100AD0008443D1E9000640EA060502F0100005FA59
:100AE00000F00443186804601868006802F01007FA
:100AF000C026BE40B0431E6830600120187100BFA0
:100B00000020587100BF00BFD5E77047704770479D
:100B100010B504460CB9012010BD207920B9002081
:100B20006071204600F008F802202071002020614A
:100B3000012020710020EFE710B586B00446142193
:100B400001A8FFF777FB2949206888424CD100BFF4
:100B5000002000902648006840F0005024490860BA
:100B60000846006800F00050009000BF00BF00BFC2
:100B7000002000901E481038006840F001001C4919
:100B8000103908600846006800F00100009000BFBE
:100B900000BF10200190032002900020039001A9C3
:100BA000144800F043FB1448144908604FF060609B
:100BB00048604021114881600021C1604FF480618C
:100BC00001610021416181614FF48071C1610021A7
:100BD0000162416200F06AFA08B1FFF75FFF00BFEF
:100BE0000648A060846300BF06B010BD00740040DA
:100BF000403802400000024088600240C4000020EB
:100C00002DE9F04704460D4616469946089F4FF0D9
:100C100001084FF0000A00BF6079012802D10220CC
:100C2000BDE8F0870120607100BF0220207115BB74
:100C30003C48A168C8633C48A16808643B48A16877
:100C4000C8642068006840F480502168086027B1BB
:100C5000042F06D0082F0CD107E0206800F1080A05
:100C600008E0206800F10C0A04E0206800F1100A96
:100C700000E000BF22E02E48E168C8632D48E1682B
:100C800008642D48E168C8642068006840F080501E
:100C90002168086027B1042F06D0082F0CD107E087
:100CA000206800F1140A08E0206800F1180A04E046
:100CB000206800F11C0A00E000BF00BF6DB9206889
:100CC000006840F40050216808604B4652463146A7
:100CD000A06800F061FA80460CE02068006840F0EF
:100CE0000050216808604B4652463146E06800F0EB
:100CF00053FA804600BF0020607100BFB8F1000FBA
:100D000009D12068006805F01002012191400843D4
:100D10002168086003E0206940F00400206140463B
:100D20007EE700000D090008650900083109000888
:100D30001F090008730900084B09000870B5044634
:100D40000D462068006805F010024FF48051914074
:100D50008843216808602068006805F010020121BE
:100D600091408843216808604DB9A06800F014F8EC
:100D70002068006820F400502168086008E0E068FE
:100D800000F00AF82068006820F000502168086030
:100D900001202071002070BD70B50446A56D00F0E3
:100DA00047FB064694F83500022808D0802060658D
:100DB00000BF002084F8340000BF012070BD20680F
:100DC000006820F01600216808602068406920F063
:100DD000800021684861206C08B9A06C28B12068A7
:100DE000006820F00800216808602068006820F092
:100DF0000100216808600FE000F01AFB801B052845
:100E00000AD92020606500BF002084F8340000BFAC
:100E1000032084F83500D1E72068006800F0010065
:100E20000028E9D194F85C103F208840A86000BFFA
:100E3000002084F8340000BF012084F83500002031
:100E4000BCE7014691F83500022803D080204865B0
:100E500001207047052081F835000868006820F0FF
:100E600001000A6810600020F3E70000F8B50446AE
:100E7000002000908C4800684FF41651B0FBF1F749
:100E8000A56D2E6894F85C1008208840304098B119
:100E90002068006800F0040070B12068006820F04D
:100EA00004002168086094F85C1008208840A8605D
:100EB000606D40F00100606594F85C10012088408E
:100EC000304068B12068406900F0800040B194F87B
:100ED0005C1001208840A860606D40F002006065F1
:100EE00094F85C1004208840304068B120680068A5
:100EF00000F0020040B194F85C1004208840A86023
:100F0000606D40F00400606594F85C10102088402B
:100F1000304078B32068006800F0080050B394F8BF
:100F20005C1010208840A8602068006800F48020D1
:100F300080B12068006800F4002028B9206CC8B196
:100F40002046216C884715E0A06C98B12046A16C22
:100F500088470FE02068006800F4807028B9206896
:100F6000006820F0080021680860206C10B120465D
:100F7000216C884794F85C1020208840304000287D
:100F800065D02068006800F0100000285FD094F859
:100F90005C1020208840A86094F83500052828D1EE
:100FA0002068006820F01600216808602068406909
:100FB00020F0800021684861206C08B9A06C28B13D
:100FC0002068006820F008002168086094F85C1030
:100FD0003F208840A86000BF002084F8340000BF94
:100FE000012084F83500206D10B12046216D88471E
:100FF000F8BD2068006800F4802080B12068006897
:1010000000F4002028B9606C10B12046616C88475C
:101010001DE0E06BD8B12046E16B884717E02068FF
:10102000006800F4807068B92068006820F0100043
:101030002168086000BF002084F8340000BF012050
:1010400084F83500E06B10B12046E16B8847606D95
:1010500038B3606D00F00100F0B1052084F8350070
:101060002068006820F001002168086000BF009837
:10107000401C0090B84200D905E02068006800F0EC
:1010800001000028F3D100BF00BF002084F8340025
:1010900000BF012084F83500E06C10B12046E16CFF
:1010A000884700BFA4E70000440000202DE9F0417C
:1010B0000446002500F0BCF9074614B90120BDE83C
:1010C000F081606A00B100BF00BF002084F83400E6
:1010D00000BF022084F835002068006820F001007D
:1010E000216808600AE000F0A3F9C01B052805D9B3
:1010F00020206065032084F83500E0E72068006860
:1011000000F001000028EED1206805682148054064
:10111000D4E901010843E168084321690843616992
:101120000843A1690843E1690843216A084305436C
:10113000606A042803D1D4E90B0108430543206801
:1011400005602068456925F00705606A0543606A07
:1011500004280DD1A06A0543E06A48B12046FFF794
:1011600031FC28B140206065012084F83500A6E7F5
:10117000206845612046FFF70BFC064694F85C109A
:101180003F208840B06000206065012084F8350071
:10119000002094E73F8010F02DE9F04704460D460B
:1011A00016461F464FF00008D4F8589000BF94F838
:1011B0003400012802D10220BDE8F087012084F824
:1011C000340000BF94F83500012825D1022084F8AE
:1011D0003500002060653B46324629462046FFF731
:1011E00046FC94F85C103F208840C9F8080020684D
:1011F000006840F0160021680860206C28B1206863
:10120000006840F00800216808602068006840F02D
:1012100001002168086006E000BF002084F8340067
:1012200000BF4FF002084046C6E70000F8B502468E
:101230000B460025002400200021DEE0012606FAEE
:1012400001F51E6806EA0504AC4275D11E7906F068
:101250000306012E04D01E7906F00306022E13D1D8
:1012600090684F000326BE40B0434F00DE68BE408A
:1012700030439060506801268E40B0431E79C6F31B
:1012800000168E40304350601E7906F00306032E90
:1012900009D0D0684F000326BE40B0434F009E687F
:1012A000BE403043D0601E7906F00306022E13D1F3
:1012B000CF0802F1200656F827004E07F70E0F263A
:1012C000BE40B0434F07FF0E1E69BE403043CF08FB
:1012D00002F1200646F8270010684F000326BE40A2
:1012E000B0431E7906F003064F00BE403043106045
:1012F0005E6806F08056B6F1805F7DD100BF0026A3
:101300000096404E366846F480463E4F3E603E466C
:10131000366806F48046009600BF00BF3A4E8F083C
:1013200056F827008E07370F0F26BE40B043374EC2
:10133000B24202D1002624E05EE0354EB24201D135
:1013400001261EE0334EB24201D1022619E0324E90
:10135000B24201D1032614E0304EB24201D104263C
:101360000FE02F4EB24201D105260AE02D4EB242C7
:1013700001D1062605E02C4EB24201D1072600E03D
:1013800008268F073F0FBE4030431F4E8F0846F898
:101390002700264E3068A0435E6806F48036B6F516
:1013A000803F00D12043214E3060361D3068A0437D
:1013B0005E6806F40036B6F5003F00D120431B4EB0
:1013C000361D3060361D3068A0435E6806F4801616
:1013D000B6F5801F00D12043144E08363060361D0C
:1013E0003068A0435E6806F40016B6F5001F00D111
:1013F00020430E4E0C363060491C1029FFF41EAFFE
:10140000F8BD0000443802400838014000000240A6
:101410000004024000080240000C0240001002409C
:101420000014024000180240001C0240003C014031
:101430000148006870470000380000200348006839
:1014400003490978084401490860704738000020C2
:101450004000002010B50D48006840F400700B49B2
:1014600008600846006840F480600860084600682C
:1014700040F480700860032000F0A2F8002000F023
:1014800007F800F02BF8002010BD0000003C0240DF
:1014900070B504460E4800784FF47A71B1FBF0F055
:1014A0000C490968B1FBF0F5284600F0A8FE08B128
:1014B000012070BD102C07D200222146501E00F0E2
:1014C00041F80548046001E00120F2E70020F0E760
:1014D00040000020440000203C00002008B500BF70
:1014E000002000900E48006840F480400C490860DD
:1014F0000846006800F48040009000BF00BF00BFB5
:1015000000200090081F006840F08050091F08600C
:101510000846006800F08050009000BF00BF08BD82
:101520004438024001460846002809DB00F01F034A
:1015300001229A4043099B0003F1E023C3F80021F4
:1015400000BF70472DE9F05F80460D461646002724
:1015500001F0D6FE074639462A46334601F0070019
:10156000C0F1070ABAF1040F02D94FF0040A01E0F2
:10157000C0F1070AD14600F1040ABAF1070F02D2FE
:101580004FF0000A01E0A0F1030AD4464FF0010A2F
:101590000AFA09FAAAF1010A0AEA020A0AFA0CFA94
:1015A0004FF0010B0BFA0CFBABF1010B0BEA030B39
:1015B0004AEA0B042146404601F0AAFEBDE8F09F2E
:1015C00000BF00F00702064B19684FF6FF031940F1
:1015D000044B0B4343EA0221014B196000BF7047E3
:1015E0000CED00E00000FA05F8B5044600250026E1
:1015F000207800F0010020B9207800F004000428D1
:101600002FD100205B498866FFF712FF054606E0F0
:10161000FFF70EFF401B022801D90320F8BD5648F2
:101620000068C0F3C0600028F2D160688101207AB0
:1016300041EA007050498431086001204D498866B4
:10164000FFF7F6FE054606E0FFF7F2FE401B022814
:1016500001D90320E2E748480068C0F3C0600028D1
:10166000F2D0207800F0020002287DD100BF0020D7
:10167000009041484030006840F080503E49403181
:1016800008600846006800F08050009000BF00BF6E
:101690003A48006840F4807038490860FFF7C8FE97
:1016A000054606E0FFF7C4FE401B022801D90320CF
:1016B000B4E73248006800F480700028F2D02E4869
:1016C0007030006800F440764EB3A08900F440709A
:1016D000B04224D028487030006820F440760120C1
:1016E00027490860002008602348703006600068C1
:1016F00000F0010098B1FFF79BFE054608E0FFF7F8
:1017000097FE401B41F28831884201D9032085E7CA
:10171000194870300068C0F340000028EFD000BFC7
:10172000A08900F44070B0F5407F0CD11248083019
:10173000006820F4F810134AE168114008430E498C
:101740000831086007E00C480830006820F4F81001
:10175000094908310860084870300068A189C1F360
:101760000B010843044900E002E07031086000BF4B
:10177000002053E70000474200380240007000405C
:10178000400E4742FFFCFF0F70B504460D460CB9F2
:10179000012070BD5848006800F00700A84209D237
:1017A00055490D700846006800F00700A84201D0B6
:1017B0000120EEE7207800F0020002281DD12078F9
:1017C00000F00400042805D14C48006840F4E050C3
:1017D0004A490860207800F00800082805D14748E9
:1017E000006840F46040454908604448006820F0C3
:1017F000F000A168084341490860207800F001002A
:10180000A8B36068012807D13C4808380068C0F3D5
:101810004040B8B90120BCE76068022802D0606887
:10182000032807D1354808380068C0F3406048B93C
:101830000120AEE7314808380068C0F3400008B91D
:101840000120A6E72D48006820F0030061680843E6
:101850002A490860FFF7ECFD064609E0FFF7E8FDBE
:10186000801B41F28831884202D9032091E707E0CA
:101870002248006800F00C006168B0EB810FEDD1E8
:101880001D48006800F00700A84209D91A490D70E8
:101890000846006800F00700A84201D0012078E760
:1018A000207800F00400042807D11448006820F4D0
:1018B000E050E168084311490860207800F0080012
:1018C000082808D10D48006820F46040216940EAEA
:1018D000C1000A49086000F03FF808490968C1F3EF
:1018E0000311074A515CC840064908600648006871
:1018F000FFF7CEFD00204CE7003C024008380240D4
:10190000FD3A0008440000203C0000200148006827
:10191000704700004400002000B5FFF7F7FF0449BE
:101920000968C1F38221034A515CC84000BD000030
:10193000083802400D3B000800B5FFF7E7FF0449F7
:101940000968C1F34231034A515CC84000BD000040
:10195000083802400D3B00082DE9F047002400251F
:101960000026A1462548006800F00C0020B104289C
:1019700005D008283AD105E0DFF8849039E0DFF897
:10198000849036E01D48001F006800F03F041B48AB
:10199000001F006800F4800078B11A481749091F39
:1019A0000968C1F38811A0FB01700146224600239B
:1019B0003846FEF707FC05460EE011480F49091F9F
:1019C0000968C1F38811A0FB01700146224600237B
:1019D0003846FEF7F7FB05460848001F0068C0F3CD
:1019E0000140401C4600B5FBF6F902E0DFF810901C
:1019F00000BF00BF4846BDE8F0870000083802403D
:101A00000024F40000127A00F8B504460CB9012055
:101A1000F8BD207800F00100002874D0F948006873
:101A200000F00C0004280DD0F648006800F00C000F
:101A3000082813D1F348001F006800F48000B0F5B7
:101A4000800F0BD1EF4808380068C0F340400028F1
:101A500059D06068002856D10120D9E700BF6068DE
:101A6000B0F5803F08D1E7480838006840F480307E
:101A7000E449083908601EE06068B0F5A02F0DD178
:101A8000E0480838006840F48020DE4908390860E2
:101A90000846006840F4803008600CE0D9480838F7
:101AA000006820F48030D74908390860084600688B
:101AB00020F48020086000BF606890B1FFF7B8FC98
:101AC000054606E0FFF7B4FC401B642801D903205B
:101AD0009EE7CC4808380068C0F340400028F1D0A9
:101AE00011E0FFF7A5FC054606E0FFF7A1FC401B4F
:101AF000642801D903208BE7C24808380068C0F386
:101B000040400028F1D1207800F0020002285FD187
:101B1000BC48006800F00C0058B1BA48006800F0FA
:101B20000C0008281CD1B748001F006800F4800092
:101B3000B0B9B44808380068C0F3400020B1E0688C
:101B4000012801D0012063E7AE480838006820F082
:101B5000F800216940EAC100AA490839086037E065
:101B6000E06800B30120A8490860FFF761FC054662
:101B700006E0FFF75DFC401B022801D9032047E780
:101B8000A04808380068C0F340000028F1D09D4804
:101B90000838006820F0F800216940EAC10099493E
:101BA0000839086014E0002097490860FFF740FCFE
:101BB000054606E0FFF73CFC401B022801D9032044
:101BC00026E7904808380068C0F340000028F1D1AB
:101BD000207800F0080008282CD16069A8B1012005
:101BE0008A490860FFF724FC054606E0FFF720FC61
:101BF000401B022801D903200AE782486C300068A4
:101C0000C0F340000028F1D014E000207F490860B4
:101C1000FFF70EFC054606E0FFF70AFC401B022812
:101C200001D90320F4E677486C300068C0F3400027
:101C30000028F1D1207800F00400042870D100279A
:101C400070483830006800F0805090B900BF002024
:101C500000906C483830006840F080506949383155
:101C600008600846006800F08050009000BF00BF88
:101C700001276748006800F48070B0B964480068C4
:101C800040F4807062490860FFF7D2FB054606E029
:101C9000FFF7CEFB401B022801D90320B8E65C48C1
:101CA000006800F480700028F2D000BFA06801280E
:101CB00008D154486830006840F00100514968314B
:101CC00008601DE0A06805280DD14E486830006806
:101CD00040F004004B49683108600846006840F055
:101CE000010008600CE047486830006820F00100FF
:101CF0004449683108600846006820F00400086024
:101D000000BFA068A8B1FFF793FB054609E0FFF705
:101D10008FFB401B41F28831884202D9032077E6CD
:101D200026E0384868300068C0F340000028EED054
:101D300013E0FFF77DFB054608E0FFF779FB401B4A
:101D400041F28831884201D9032061E62D4868308C
:101D50000068C0F340000028EFD1012F07D12948C7
:101D60003830006820F0805026493831086000BFC4
:101D7000A069002845D02348006800F00C0008281E
:101D80005DD0A069022845D100201F490866FFF7F1
:101D90004FFB054606E0FFF74BFB401B022801D92D
:101DA000032035E6174808380068C0F34060002873
:101DB000F1D1D4E907010843616A40EA81110122A7
:101DC000A06AC2EB500041EA00412C20005D41EACC
:101DD00000600C49091F086001200B490866FFF7E5
:101DE00027FB054606E0FFF723FB401B022801D92D
:101DF00003200DE6034808380068C0F3406000285F
:101E0000F1D049E00838024000004742800E4742C6
:101E100000700040002021490866FFF709FB0546D5
:101E200006E0FFF705FB401B022801D90320EFE580
:101E30001B480068C0F340600028F2D12CE0A06984
:101E4000012800D1E4E51648001D0668A0690128B4
:101E500020D006F48001E06981421BD106F03F01E9
:101E6000206A814216D147F6C0703040616AB0EBFB
:101E7000811F0FD106F440310122A06AC2EB50004D
:101E8000B1EB004F06D106F070612C20005DB1EB84
:101E9000006F01D00120BBE50020B9E500004742FA
:101EA0000038024010B504460CB9012010BD607F17
:101EB00020B900202077204600F060F802206077EB
:101EC00000BFCA202168486253202168486200BFD1
:101ED000204600F035FE40B100BFFF202168486277
:101EE00000BF042060770120E0E720688068224975
:101EF0000840216888602169606808436169084377
:101F0000216889680843216888602168E068086161
:101F100020680169208941EA004021680861206841
:101F2000C06820F080002168C8602068806800F0E8
:101F3000200060B9204600F045F940B100BFFF2005
:101F40002168486200BF042060770120AEE7206866
:101F5000006C20F48020216808642068006CA1696E
:101F600008432168086400BFFF202168486200BF61
:101F700001206077002099E7BFFF8FFF034A0168C7
:101F8000914202D10121024A1160704700280040AD
:101F90003C0E47422DE9F04104460D461646002707
:101FA00000BF207F012802D10220BDE8F08101207E
:101FB000207700BF022060774EB9687800F01000EB
:101FC000102804D1687800F0EF000A30687086B9F4
:101FD000E87800F0A8FD0304687800F0A4FD43EA67
:101FE0000023A87800F09FFD0343287843EA403798
:101FF00009E0E8780004697840EA0120A9780843FC
:10200000297840EA413700BFCA202168486253203E
:102010002168486200BF204600F092FD60B100BF19
:10202000FF202168486200BF0420607700BF0020C5
:10203000207700BF0120B8E7164838402168486083
:102040002068C06820F080002168C860206880682F
:1020500000F0200080B9204600F0B4F860B100BF65
:10206000FF202168486200BF0420607700BF002085
:10207000207700BF012098E700BFFF202168486259
:1020800000BF0120607700BF0020207700BF00BFA5
:102090008BE700003FFFFF002DE9F04104460D46AD
:1020A0001646002700BF207F012802D10220BDE88C
:1020B000F0810120207700BF02206077CEB9206830
:1020C000806800F0400000B102E00020E87000BF2E
:1020D000287800F028FD0304687800F024FD43EA26
:1020E0000023A87800F01FFD0343E87843EA004787
:1020F00012E02068806800F0400000B102E000209B
:10210000E87000BF28780004697840EA0120A978C7
:102110000843E97840EA014700BFCA2021684862C5
:1021200053202168486200BF204600F009FD60B1DD
:1021300000BFFF202168486200BF0420607700BF15
:102140000020207700BF0120B1E71D4838402168FA
:1021500008602068806820F4802021688860D5E9C4
:102160000301084321688968084321688860206862
:10217000C06820F080002168C8602068806800F096
:10218000200080B9204600F01DF860B100BFFF209C
:102190002168486200BF0420607700BF00202077DC
:1021A00000BF012083E700BFFF202168486200BF15
:1021B0000120607700BF0020207700BF00BF76E7D6
:1021C0007F7F7F0070B5044600252068C06820F03E
:1021D000A0002168C860FFF72BF9054607E0FFF76C
:1021E00027F9401BB0F57A7F01D9032070BD206824
:1021F000C06800F020000028F1D00020F6E770B59C
:1022000004462546681EB0F1807F01D301200FE00F
:10221000681E4FF0E02148610F214FF0FF3001F0C0
:1022200077F800204FF0E021886107200861002046
:1022300070BD000030B502460B4600BF92F83C006E
:10224000012801D1022030BD012082F83C0000BFEE
:10225000022082F83D00106844681068816824F00C
:1022600070041868044310684460184D1068A84250
:102270001BD01068B0F1804F17D0154D1068A842E0
:1022800013D0144D1068A8420FD0134D1068A84207
:102290000BD0124D1068A84207D0114D1068A8420B
:1022A00003D0104D1068A84205D121F08001586874
:1022B000014310688160012082F83D0000BF0020CA
:1022C00082F83C0000BF00BFBDE7000000000140F5
:1022D0000004004000080040000C004000040140E1
:1022E000004001400018004010B504460CB9012020
:1022F00010BD94F83D0028B9002084F83C00204629
:1023000000F026F8022084F83D00211D206800F02E
:1023100035FD012084F8460000BF84F83E0001210D
:102320003F200155402001554120015500BF00BF0D
:10233000012084F8420043200155442001554520E6
:10234000015500BF012084F83D000020D0E70000C7
:1023500008B50A4A016891420FD100BF00210091DF
:102360000749096841F01001054A116011460968E2
:1023700001F01001009100BF00BF08BD0010004037
:1023800040380240014691F83D00012801D001206B
:102390007047022081F83D001A4B086898421BD014
:1023A0000868B0F1804F17D0174B0868984213D0D7
:1023B000164B086898420FD0154B086898420BD00E
:1023C000144B0868984207D0134B0868984203D012
:1023D000124B086898420CD10868806800F0070228
:1023E000062A0CD00868006840F001000B681860ED
:1023F00005E00868006840F001000B6818600020E4
:10240000C6E7000000000140000400400008004052
:10241000000C004000040140004001400018004052
:10242000704770472DE9F84F04462068056820681A
:10243000C668206847694FF00009CA4605F00F09D1
:10244000B9F1000F0AD105F0200038B106F02000E4
:1024500020B1204600F033FDBDE8F88FB9F1000F40
:1024600072D007F0010018B906F4907000286BD004
:1024700005F0010030B106F4807018B1206C40F016
:102480000100206405F0040030B107F0010018B12C
:10249000206C40F00200206405F0020030B107F02B
:1024A000010018B1206C40F00400206405F0080021
:1024B00048B106F0200010B907F0010018B1206CF7
:1024C00040F008002064206C70B305F0200028B1B3
:1024D00006F0200010B1204600F0F1FC20684069B1
:1024E000C0F3801A206C00F0080010B9BAF1000F98
:1024F00023D0204600F0B8FC2068406900F040007E
:10250000402816D12068406920F0400021684861C9
:10251000A06B50B15648A16B0865A06BFEF791FC0B
:1025200010B1A06B016D88470CE02046FFF779FFE2
:1025300008E02046FFF775FF04E02046FFF771FF33
:102540000020206488E7FFE7206B012879D105F09F
:102550001000002875D006F01000002871D000BFD0
:10256000002000902068006800902068406800907B
:1025700000BF00BF2068406900F04000402839D10A
:10258000A06B006840681FFA80F8B8F1000F30D0E7
:10259000A08D40452DDDA4F82E80A06BC069B0F55C
:1025A000807F1FD02068C06820F480702168C860D8
:1025B0002068406920F00100216848612068406976
:1025C00020F0400021684861202084F83E0000206F
:1025D00020632068C06820F010002168C860A06BEC
:1025E000FEF7DAFBA08DE28D801A81B22046FFF75C
:1025F00017FF31E7A08DE18D401A1FFA80F8E08DBA
:10260000E8B1B8F1000F1AD02068C06820F49070CB
:102610002168C8602068406920F001002168486195
:10262000202084F83E00002020632068C06820F04D
:1026300010002168C86041462046FFF7F1FE0BE715
:10264000FFE705F0800030B106F0800018B12046A9
:1026500000F0CDFD00E705F0400030B106F040008D
:1026600018B1204600F01BFCF6E600BFF4E60000BF
:10267000552E000810B504460CB9012010BDA06904
:1026800000B100E000BF94F83D0028B9002084F8B4
:102690003C00204600F028F8242084F83D00206803
:1026A000C06820F400502168C860204600F066FC35
:1026B0002068006920F49040216808612068406922
:1026C00020F02A00216848612068C06840F400506A
:1026D0002168C86000202064202084F83D0084F830
:1026E0003E000020CAE7000010B586B00446142161
:1026F00001A8FDF79FFD1F492068884238D100BF1F
:10270000002000901C48006840F480201A490860AE
:102710000846006800F48020009000BF00BF00BFA2
:102720000020009014481038006840F00200124960
:10273000103908600846006800F00200009000BFF1
:1027400000BF4FF4406001900220029000200390EF
:10275000032004900720059001A90848FEF766FDB4
:10276000002211462720FEF7EDFE2720FEF7DAFEB5
:1027700006B010BD0048004040380240000402404E
:1027800070B504460D46164694F83E00202816D132
:1027900005B10EB9012070BD00BF94F83C000128BE
:1027A00001D10220F7E7012084F83C0000BF00209F
:1027B000206332462946204600F0F6FCEBE7022073
:1027C000E9E7000010B5044615488068401C14492C
:1027D0004968884202D11248006802E010488068C7
:1027E000401C0F49C968884213D00E4800780C4934
:1027F000896808700A488068401C0949496888420D
:1028000002D10748006802E005488068401C04497E
:102810008860012203490448FFF7B2FF10BD0000A1
:102820008C000020000000208C0100202DE9F84FD2
:1028300004460E46174699464FF0000A94F83D00AC
:1028400020285AD106B117B90120BDE8F88F00BF82
:1028500094F83C00012801D10220F6E7012084F819
:102860003C0000BF00202064212084F83D00FEF7DA
:10287000DFFD8246A784E784A068B0F5805F04D1BD
:10288000206910B90025B04602E035464FF0000837
:1028900000BF002084F83C0000BF1BE0534600222C
:1028A00080212046CDF8009000F0D1FC08B1032033
:1028B000CBE745B9B8F80000C0F3080021684860CC
:1028C00008F1020803E02878216848606D1CE08C5C
:1028D000401EE084E08C0028E0D1534600224021D5
:1028E0002046CDF8009000F0B2FC08B10320ACE720
:1028F000202084F83D000020A7E70220A5E700BFC4
:10290000704700BFFEE700001CB50020009001905A
:102910000A480B4908600846FEF7FAF808B1FEF7C6
:10292000BDF8042000900020019000226946044870
:10293000FEF7BAF808B1FEF7B1F81CBD007400400C
:10294000B000002008B500BF002000900A480068D1
:1029500040F40010084908600846006800F40010C0
:10296000009000BF00BF002211461020FEF7EAFDD4
:102970001020FEF7D7FD08BD3038024008B500BF73
:10298000002000901D48006840F004001B490860CA
:102990000846006800F00400009000BF00BF00BFC0
:1029A000002000900846006840F08000086008465B
:1029B000006800F08000009000BF00BF00BF002052
:1029C00000900846006840F0010008600846006872
:1029D00000F00100009000BF00BF00BF0020009089
:1029E0000846006840F0020008600846006800F0F1
:1029F0000200009000BF00BF08BD00003038024058
:102A000000B587B0142102A8FDF714FC0020019046
:102A10001B481C490860002048607F2119488160DC
:102A2000FF21C1600021016141618161FFF73AFA34
:102A300008B1FEF733F800208DF808008DF8090082
:102A40008DF80A0005900690012202A90D48FFF7B3
:102A500023FB08B1FEF722F801208DF804008DF861
:102A600005008DF8060000208DF80700012201A95D
:102A70000448FFF78FFA08B1FEF710F807B000BD61
:102A800000280040240100201CB500200090019087
:102A90000E480F4908600020486000210C48816002
:102AA00041F29831C16080218161FFF71DFC08B1BE
:102AB000FDF7F4FF202000900020019069460448B3
:102AC000FFF7B8FB08B1FDF7E9FF1CBD001000409F
:102AD0004401002010B50B480B4908604FF49640A4
:102AE0004860002108488160C16001610C2141619A
:102AF00000218161C161FFF7BDFD08B1FDF7CEFF87
:102B000010BD0000004800408C01002000BFFEE71F
:102B100000BFFEE7704702E000210170401C017811
:102B20000029F9D170470146002203E0521CA1F1AF
:102B30000A00C1B20A29F9D2100741EA10607047B1
:102B400070B5044600252068C06800F04000A0B9B8
:102B5000681E2168C860FEF76BFC054607E0FEF7BB
:102B600067FC401BB0F57A7F01D9032070BD206857
:102B7000C06800F040000028F1D00020F6E770B5F2
:102B8000044600F079FF051E0BD000210D2D01D168
:102B9000012070BD00E0491C605C0028FBD1655439
:102BA00000BF0020F5E7704738B5044624B900217E
:102BB0000948FEF7C3F80EE008204123074A002128
:102BC00000900548FEF71CF80548C460FFF78CFB31
:102BD00008B1FDF763FF38BDB0000020B43A00082B
:102BE0004401002010B52048007800283BD01F4841
:102BF0000078A0B9FEF71CFC1D490968401A1D4960
:102C0000096888422FD91C480068FFF7CDFF0120D2
:102C100016490870FEF70CFC1549086023E0FEF722
:102C200007FC13490968441AFEF702FC10490968B9
:102C3000401A12490968884214D90020FFF7B4FFEE
:102C400000200A490870FEF7F3FB094908600648AE
:102C50000078401E044908700846007810B900202A
:102C60000749087000BF10BD30000020320000206E
:102C7000340000202C000020240000202800002028
:102C80003100002010B5FEF7D9FB10BD00B597B09C
:102C900030210BA8FDF7CEFA142106A8FDF7CAFAD9
:102CA0000020029003900490059000BF01902A48F4
:102CB000006840F08050284908600846006800F02D
:102CC0008050019000BF00BF00BF0020019023484A
:102CD000006840F48040214908600846006800F41C
:102CE0008040019000BF00BF09200B904FF480305E
:102CF0000C900120109002201190410512910421A6
:102D00001391A821149102211591082116910BA865
:102D1000FEF77AFE08B1FDF7C1FE0F2006900220F3
:102D20000790002008904FF4A05009904FF4805075
:102D30000A90052106A8FEF727FD08B1FDF7AEFEB3
:102D4000022002900002059002A8FEF74DFC08B197
:102D5000FDF7A4FE17B000BD4038024000700040EF
:102D60000548006840F47000034908604FF00060B7
:102D7000014980390860704788ED00E010B50268AD
:102D8000294B98420ED0B0F1804F0BD0274B984280
:102D900008D0274B984205D0264B984202D0264BAC
:102DA000984203D122F070024B681A431E4B98429E
:102DB00020D0B0F1804F1DD01C4B98421AD01C4B34
:102DC000984217D01B4B984214D01B4B984211D0FD
:102DD0001A4B98420ED01A4B98420BD0194B98427E
:102DE00008D0194B984205D0184B984202D0184B86
:102DF000984203D122F44072CB681A4322F0800338
:102E00004C6943EA040202608B68C3620B68836208
:102E1000054B984202D0084B984201D10B690363DD
:102E20000123436110BD0000000001400004004088
:102E300000080040000C0040000401400040014038
:102E4000004401400048014000180040001C0040C0
:102E50000020004070B50546AC6B0020E085E084A2
:102E60002046FFF7DEFA70BD0168C96821F4907151
:102E70000268D1600168496921F00101026851616D
:102E8000016B012905D10168C96821F010010268B0
:102E9000D160202180F83E1000210163704710B5F9
:102EA00004462068C06820F040002168C8602020E7
:102EB00084F83D002046FFF722FD002010BD70B5CC
:102EC000044694F83E00222856D1A068B0F5805FF1
:102ED0000CD1206950B90025A66A20684068C0F36B
:102EE00008003080A06A801CA06215E0A56A002658
:102EF000A068B0F5805F03D0A06828B9206918B930
:102F000020684068287004E02068406800F07F0076
:102F10002870A06A401CA062E08D401E80B2E0854F
:102F200040BB2068C06820F020002168C86020688D
:102F3000C06820F480702168C8602068406920F073
:102F4000010021684861202084F83E00206B0128A0
:102F50000AD12068C06820F010002168C860A18DE7
:102F60002046FFF75DFA02E02046FFF72BFC002029
:102F7000206370BD0020FCE70220FAE72DE9F84F3E
:102F800004462068006920F44050E1680843216845
:102F900008612169A068084361690843E169084341
:102FA00000902068C06849F20C618843009908438A
:102FB0002168C8602068406920F44070A169084316
:102FC0002168486176492068884203D075492068A5
:102FD000884203D1FEF7B0FC814602E0FEF79CFC7C
:102FE0008146E069B0F5004F6CD102206168A0FB1A
:102FF000015003461920A9FB007001462A463846B5
:10300000FDF7E0F86421B0FBF1F04FEA001A02206E
:103010006168A0FB01510B461920A9FB00712A46EB
:103020003846FDF7CFF8834602206168A0FB0150C7
:1030300003461920A9FB00712A463846FDF7C2F85D
:103040006421B0FBF1F000EBC00101EB0010ABEB31
:103050008000322101EBC0006421B0FBF1F000F0F0
:10306000F8000AEB400A02206168A0FB0150034609
:103070001920A9FB007001462A463846FDF7A2F840
:10308000834602206168A0FB015003461920A9FB7A
:1030900000712A463846FDF795F86421B0FBF1F03F
:1030A00000EBC00101EB0010ABEB8000322101EB23
:1030B000C0006421B0FBF1F000F00700504421682B
:1030C00088606AE004206168A0FB01500346192073
:1030D000A9FB007001462A463846FDF773F8824680
:1030E00004206168A0FB015003461920A9FB007071
:1030F00001462A463846FDF765F86421B0FBF1F039
:1031000000EBC00101EB0010AAEB8000322101EBC3
:1031100000106421B0FBF1F000F0F00A04206168B7
:10312000A0FB017003461920A9FB00513A4628462E
:10313000FDF748F86421B0FBF1F00AEB001A042017
:103140006168A0FB01510B461920A9FB00712A46BA
:103150003846FDF737F8834604206168A0FB01502C
:1031600003461920A9FB007001462A463846FDF7A0
:1031700029F86421B0FBF1F000EBC00101EB001075
:10318000ABEB8000322101EB00106421B0FBF1F0C9
:1031900000F00F00504421688860BDE8F88F0000FF
:1031A000001001400014014010B5034699629A8551
:1031B000DA8500201864222083F83E0000BF00203A
:1031C00083F83C0000BF1868C06840F480701C6839
:1031D000E0601868406940F001001C686061186890
:1031E000C06840F020001C68E060002010BD01466F
:1031F00091F83D00212828D18868B0F5805F0BD177
:10320000086948B90A6A1088C0F308000B6858605A
:10321000086A801C086205E00B6A581C086218786E
:103220000B685860C88C401E80B2C88458B90868C2
:10323000C06820F080000B68D8600868C06840F063
:1032400040000B68D860002070470220FCE72DE9A1
:10325000F04104460D4617469846069E21E0701C34
:10326000F8B12EB1FEF7E4F8A0EB0800B04218D98F
:103270002068C06820F4D0702168C8602068406968
:1032800020F0010021684861202084F83D0084F886
:103290003E0000BF002084F83C0000BF0320BDE8D2
:1032A000F081206800682840A84201D1012000E098
:1032B0000020B842D3D00020F1E7000010B502484A
:1032C000FFF7B0F810BD00008C01002000BFFEE742
:1032D00003B401984100009850EAC12018BF0420AF
:1032E0004A0D18BF40F0010040F2FF72B2EB515F8F
:1032F00008BF40F00200012808BF052002B0704757
:1033000002480068C0F30220704700000CED00E0A6
:1033100010B5002804DB0A07130E054A135406E013
:103320000A07140E034A00F00F031B1FD45410BDEC
:1033300000E400E018ED00E070B52DED020B2DED7E
:103340000A8B82B00D98C40F20F00045AE4885422C
:1033500048D3AE48854219D30C99C5F313000843EE
:1033600009D09DED0C0B02B0BDEC0A8B02B0BDE89C
:10337000704000F009BA002C14BF9FEDA50B9DED25
:103380000C0B02B0BDEC0A8B02B070BD9FEDA20B1E
:1033900053EC102B9DED0C0B51EC100BFDF7C4F909
:1033A0000AD2022000F02CFA02B0BDEC0A8B02B067
:1033B000BDE8704000F0F4B99FED990B53EC102B71
:1033C0009DED0C0B51EC100BFDF796F90AD2022083
:1033D00000F016FA02B0BDEC0A8B02B0BDE87040F6
:1033E00000F0EEB990489FED92BBA8425CD29248A3
:1033F000854219D29148784400EBC40090ED000B4F
:1034000053EC102B9DED0C0B51EC100BFDF7EDF870
:1034100041EC1A0B8A48784400EBC40090ED009B05
:10342000C4F10100041B36E09FED870B53EC102B19
:103430009DED0C0B51EC100BFCF71CFF41EC100B3D
:103440008348784400EBC40090ED001B51EC100B56
:1034500053EC112BFDF728F8FCF78BFF0446FDF722
:1034600039F941EC180B9FED7C0B53EC102BFCF75A
:1034700001FF9DED0C1B53EC112BFDF7B9F841EC4E
:103480001A0B9FED770B51EC180B53EC102BFCF73C
:10349000F1FE41EC190B51EC1A0B53EC192BFDF713
:1034A000A4F8CDE90C011BE06F48854217D29FEDCF
:1034B000700B53EC102B9DED0C0B51EC100BFCF72B
:1034C000F3FF53EC1B2BFDF72FF908D29DED0C0BEE
:1034D00053EC1B2B51EC100BFCF7E6FF6EE00024C5
:1034E0009DED0C0B53EC102B51EC100BFCF7C2FEB6
:1034F00041EC180B60480521B0EE480AF0EE680A6E
:10350000784400F0C5F853EC182B51EC100BFCF785
:10351000B1FE9DED0C1B53EC112BFDF769F841EC4E
:10352000180B9FED570B5CB353EC182B51EC100BA1
:10353000FDF75BF89DED0C0B41EC1C0B53EC182BCD
:1035400051EC100BFCF796FE53EC1C2BFDF753F8D7
:1035500053EC192BFDF74CF853EC1A2BFDF745F8FB
:1035600053EC1B2BFDF744F8CDE900016FF47F709D
:10357000844226DB01EB045001909DED000B00E737
:1035800053EC102B51EC180BFDF72FF89DED0C0BA5
:1035900041EC190B53EC182B51EC100BFCF76AFEA5
:1035A00053EC192BFDF727F89DED0C1B53EC112B59
:1035B000FDF71BF853EC1B2BFDF71AF841EC100B31
:1035C000DFE608464FF07A5101EB04519FED2E0BD8
:1035D000084453EC102B01909DED000B51EC100BA7
:1035E000FCF748FE0D4645EC100B044651EC100B61
:1035F000FFF76EFE042808BF00F0E2F845EC104B20
:10360000BFE6000000000000422E86400000F07F70
:103610000000000000000000EF39FAFE422E864054
:1036200051302DD5104987C0422ED63F00000000F2
:10363000000000000000F03FB2A2F03F2E070000A3
:103640001E07000000000000FE822B654715F73FB3
:10365000D2060000000000000000E0FE422EE63F1F
:10366000763C7935EF39EA3D0000303E000000003D
:103670009C7500883CE4377E440600000000000092
:103680000000000000000040000000000000700189
:1036900070B504462DED028B4D1E00EBC500B0EE5B
:1036A000408AF0EE608A90ED000B35F0060017D0EE
:1036B00053EC182B51EC100BFCF7DCFD41EC100B1C
:1036C0006D1E04EBC50090ED001B51EC100B53EC8C
:1036D000112BFCF7E9FE41EC100B35F00600E7D1A9
:1036E000022D36D0042D1CD0062D1CBFBDEC028B44
:1036F00070BD53EC182B51EC100BFCF7BBFD94ED97
:103700000A1B53EC112BFCF7CFFE53EC182BFCF7E4
:10371000B1FD94ED081B53EC112BFCF7C5FE41ECF9
:10372000100B53EC182B51EC100BFCF7A3FD94ED90
:10373000061B53EC112BFCF7B7FE53EC182BFCF7D0
:1037400099FD94ED040B53EC102BFCF7ADFE41EC0E
:10375000100B53EC182B51EC100BFCF78BFD94ED78
:10376000021B53EC112BFCF79FFE53EC182BFCF7BC
:1037700081FD94ED001B53EC112BFCF795FEBDEC85
:10378000028B41EC100B70BD10B553EC102B51ECBB
:10379000100BFCF789FE41EC100B10BD000000007F
:1037A0009FED050B10B553EC102B51EC100BFCF7F3
:1037B00061FD41EC100B10BD000000000000007026
:1037C0009FED050B10B553EC102B51EC100BFCF7D3
:1037D00051FD41EC100B10BD000000000000001076
:1037E00002E008C8121F08C1002AFAD170477047CA
:1037F000002001E001C1121F002AFBD17047000028
:103800000149086070470000480000203EB50446AA
:1038100000200090019002906946204600F00EF8CA
:1038200005A16846FCF718FD10B92046FCF7BAFF61
:103830002046FFF770F93EBD53440000002204E02B
:1038400003788B54531CDAB2401C037813B103780D
:10385000202BF5D1704710B50B46002104E0047809
:103860005C544C1CE1B2401C047814B104783A2C2E
:10387000F5D1401C002104E0047854544C1CE1B202
:10388000401C047814B10478202CF5D110BD2DE92A
:10389000F04704460F4615464FF000084FF0010967
:1038A00000E0641C207810B120782028F9D1641C35
:1038B0004FF0010921E02846FCF7C7FC00F0FF0AA1
:1038C000002603E00020A855701CC6B25645F9DD5D
:1038D0004FF0000807E0207805F8080008F1010023
:1038E00000F0FF08641C207810B120782028F2D165
:1038F000641C09F1010000F0FF09B945DBDDBDE8FA
:10390000F0870000044805490860C86088600846E0
:1039100000683F30486070474C0000208C00002059
:10392000FDF798FDFFF7B2F9FFF728F8FFF70AF85F
:10393000FEF7EAFFFFF7A8F8FFF7CCF8FFF760F80B
:10394000FFF7E0FF1948FEF71DFD0122184919484D
:10395000FEF716FF1848FCF778FC84B26423224671
:1039600015491448FEF762FF00BF1148007873281C
:10397000FBD16423012211A10E48FEF757FF104826
:10398000FFF7FDF80E48FFF7C6F80EE00C48FFF70A
:10399000F6F8012803D100BF0948FFF737FF0948AF
:1039A0000078012801D1FFF71DF9EFE7440100205D
:1039B000000000208C0100200100002074000000A5
:1039C000D0010020310000202DE9F04105460024FF
:1039D000002623A12846FCF73FFC012803D147F627
:1039E000FF70BDE8F08120A12846FCF735FC0128D6
:1039F00001D12048F5E700E0641C285D2028FBD0B9
:103A0000285D0928F8D0285D0A28F5D0285D0B2804
:103A1000F2D0285D0C28EFD0285D0D28ECD0285D71
:103A20002D2801D1012000E000200746285D2D2827
:103A300002D0285D2B2800D1641C06E006EB86002E
:103A40004600285D30380644641C285D302802DBBF
:103A5000285D3928F2DD012F00D176423046C0E7DB
:103A60003332C2A0373637002D3332C2A037363753
:103A7000000000000180FFFF0D4880680C4AD268FA
:103A8000904213D00A48C06801780948C068401CB9
:103A9000074A5268904202D10548006802E0044893
:103AA000C068401C024AD060084670470020FCE70E
:103AB0008C0000207F8B97A3AFBAC5CFD8E1E8EF89
:103AC000F4F8FBFDFEFDFBF8F4EFE8E1D8CFC5BA52
:103AD000AFA3978B7F73675B4F44392F261D160F5B
:103AE0000A060301000103060A0F161D262F39449A
:103AF0004F5B67737F00061016000610160000006B
:103B0000000000000001020304060708090000008D
:103B10000001020304000000000000000000E03F7C
:103B2000000000000000E0BF0000E0FE422EE63F83
:103B30000000E0FE422EE6BF763C7935EF39EA3DE3
:103B4000763C7935EF39EABD3E5555555555C53F5B
:103B500093BDBE166CC166BF2CDE25AF6A56113F01
:103B6000F16BD2C541BDBBBED0A4BE726937663E03
:103B7000903B0008000000204C000000E0370008E7
:103B8000DC3B00084C000020A4050000F0370008D2
:103B90000053746172740D0A000000000000000000
:103BA0000000000000000000000000000000000015
:103BB0000000000000000000000000000000000005
:103BC00000000000000000000000000010000000E5
:0C3BD000010000000024F40000000000D0
:040000050800018965
:00000001FF
