:020000040800F2
:1000000098050020A1010008DB1500088B150008E9
:10001000D9150008AD020008411A000800000000D0
:1000200000000000000000000000000001160008B1
:10003000C503000800000000DD15000803160008D5
:10004000BB010008BB010008BB010008BB010008A0
:10005000BB010008BB010008BB010008BB01000890
:10006000BB010008BB010008BB010008BB01000880
:10007000BB010008BB010008BB010008BB01000870
:1000800015030008BB010008BB010008BB01000804
:10009000BB010008BB010008BB010008BB01000850
:1000A000BB010008BB010008BB010008BB01000840
:1000B000BB010008BB010008BB010008BB01000830
:1000C000BB010008BB010008BB010008BB01000820
:1000D000BB010008BB010008BB010008351A00087D
:1000E000BB010008BB010008BB010008BB01000800
:1000F000BB010008BB010008BB010008BB010008F0
:10010000BB010008BB010008BB010008BB010008DF
:10011000BB010008BB010008BB010008BB010008CF
:10012000BB010008BB010008BB010008BB010008BF
:10013000BB010008BB010008BB010008BB010008AF
:10014000BB010008BB010008BB010008BB0100089F
:10015000BB010008BB010008BB010008BB0100088F
:10016000BB010008BB010008BB010008BB0100087F
:10017000BB010008BB010008BB0100080000000033
:10018000BB010008BB010008DFF810D000F07CF8CC
:1001900000480047811A0008AFF30080980500204E
:1001A0000648804706480047FEE7FEE7FEE7FEE711
:1001B000FEE7FEE7FEE7FEE7FEE7FEE79D16000826
:1001C000890100082DE9F05F0546002092469B4614
:1001D00088460646814640241BE02846414647465D
:1001E000224600F041F853465A46C01A914110D3B6
:1001F00011461846224600F028F82D1A67EB010830
:100200004F4622460120002100F01FF817EB00099D
:100210004E41201EA4F10104DFDC484631462A4647
:100220004346BDE8F09FD2B201E000F8012B491E21
:10023000FBD270470022F6E710B513460A46044683
:100240001946FFF7F0FF204610BD202A04DB203AB4
:1002500000FA02F1002070479140C2F1200320FA19
:1002600003F3194390407047202A04DB203A21FA17
:1002700002F00021704721FA02F3D040C2F12002BF
:100280009140084319467047064C074D06E0E06868
:1002900040F0010394E8070098471034AC42F6D3CD
:1002A000FFF776FF2C1C00084C1C0008FEE710B579
:1002B000846B204600F0ADF80120207110BD10B510
:1002C000846B204600F081F80120207110BD10B52C
:1002D000846B206940F004002061204600F09BF808
:1002E0000120207110BD10B5846B206940F004001E
:1002F0002061204600F06BF80120207110BD10B580
:10030000806B00F087F810BD10B5806B00F05EF8D0
:1003100010BD0000014800F073B900003801002052
:1003200001681823CAB2103AB2FBF3F2054B6FF31F
:100330000901032A9B5CC36500D9091D8165084634
:1003400070470000091C000810B5014600208B69A9
:100350008A6A4FF0C07453B1B3F5005F15D072B123
:10036000012A0CD0022A0AD0032A09D104E01AB1CA
:10037000012A06D0022A03D1C96AC90100D5012089
:1003800010BDC96AA142FAD010BD002AF7D0012AD7
:10039000F2D0022AF3D0032AF3D010BD30B504689E
:1003A000256825F480252560046863608368402BF8
:1003B000036803D099600068C26030BD9A6000682D
:1003C000C16030BD704772B6FEE770477047704736
:1003D00070B54379012B1AD00126467102230371AF
:1003E00005682C6840F6FE7393409C43D1E90031C8
:1003F0000B43934023432B6001680B68C024944057
:10040000A3430B60067100214171084670BD0220B4
:1004100070BD70477047704770B5040003D02079F5
:10042000002510B105E0012070BD6571204600F087
:1004300007F802202071256101202071002070BD85
:1004400070B586B0064614216846FFF7F3FE1E49D4
:100450003068884235D11D480025016841F00051BF
:100460000160006800F000500590184810380168DD
:1004700041F0010101600068694600F0010005904B
:10048000102000900320CDE90105114800F02AFA60
:10049000114C104820604FF0606060604020C4E95B
:1004A00002050001C4E904058010C4E90650256274
:1004B0002046656200F074F908B1FFF784FFB4606C
:1004C000A66306B070BD00000074004040380240D2
:1004D0000000024088600240380100202DE9F04110
:1004E00004460D461746617900220698012920D05E
:1004F0000126667102212171F5B1D4F80CC0314991
:10050000CCF83C10D4F80CC02F49CCF84010D4F8EB
:100510000CC02E49CCF84C102168D1F800C04CF02A
:10052000805CC1F800C090B3042834D0082837D1CB
:1005300034E00220BDE8F081D4F808C02449CCF8AA
:100540003C10D4F808C02349CCF84010D4F808C0B7
:100550002149CCF84C102168D1F800C04CF4805CE3
:10056000C1F800C020B1042805D0082808D105E052
:100570002268083204E022680C3201E0226810325E
:100580002068016841F400510160A0680EE0FFE7B7
:100590002268143204E02268183201E022681C321A
:1005A0002068016841F000510160E068394600F0C0
:1005B00061F920680168AE4031430160002060713C
:1005C000B8E70000BF02000809030008E7020008BE
:1005D000AF020008FF020008CF02000890F83510B3
:1005E000022903D08021416501207047052180F850
:1005F00035100068016821F001010160002070479A
:100600002DE9F84304464FF00009CDF80090634807
:100610004FF41651A56D0068B0FBF1F72E6894F801
:100620005C10082000FA01F131420FD021680A68FD
:1006300052070BD50A6822F004020A6094F85C1095
:100640008840A860606D40F00100606594F85C101F
:100650004FF0010808FA01F0304208D021684969DA
:10066000090604D5A860606D40F00200606594F84A
:100670005C1004208840304208D02168096889074E
:1006800004D5A860606D40F00400606594F85C10CB
:1006900010208840304218D021680968090714D515
:1006A000A86020680168490304D50068000308D5E4
:1006B000A16C07E00168C90503D4016821F00801B5
:1006C0000160216C09B12046884794F85C10202015
:1006D0008840304231D021680968C9062DD5A8600C
:1006E00094F8350005282068016806D0490347D5ED
:1006F000006800031DD4616C1CE021F0160101604C
:100700002068416921F080014161206C08B9A06C2A
:1007100020B12068016821F00801016094F85C10A4
:100720003F208840A86084F8349084F83580216D9B
:100730001FE0E16B09B120468847606D00282BD08F
:10074000606DC00714D0052084F83500206801686A
:1007500021F0010101600098401C0090B84203D8CC
:1007600020680068C007F6D184F8349084F835809A
:10077000E16C002910D001B02046BDE8F0430847E5
:100780000168C905D5D4016821F01001016084F821
:10079000349084F83580CCE7BDE8F8833000002041
:1007A0002DE9F041044600F079F906465CB10025D8
:1007B00084F83450022084F835002068016821F064
:1007C000010101600DE00120BDE8F08100F066F953
:1007D000801B052805D920206065032084F835009A
:1007E000F2E720680068C007F0D12268116820484D
:1007F0000140D4E901031843D4E9033633431843D5
:1008000063691843A3691843E3691843236A1843CB
:100810000843616A042903D1D4E90B13194308433F
:10082000106020684069666A20F0070130460E4378
:10083000012704280CD1A06A0643E06A40B1204693
:10084000FFF782FD20B14020606584F83570BAE77B
:10085000206846612046FFF763FD94F85C203F2145
:1008600091408160656584F835700020ACE7000038
:100870003F8010F02DE9F0410446866D90F8340079
:10088000002501280DD0012084F8340094F835703B
:100890000020012F07D084F8340002252846BDE847
:1008A000F0810220FBE7022784F83570606520465E
:1008B000FFF774FD94F85C103F208840B06020681A
:1008C000016841F016010160206C20B120680168C8
:1008D00041F0080101602068016841F001010160F8
:1008E000DCE700002DE9F84F00224FF00108032556
:1008F0004FF00F0E0B6808FA02F42340A3426ED1AA
:100900004E68012E05D0022E03D0112E01D0122EDA
:1009100012D186684FEA420C05FA0CF7BE43CF6845
:1009200007FA0CF7374387604668A6430C79C4F38F
:100930000014944034434460C668570005FA07FC2D
:100940008C6826EA0C06BC403443C4604C68022C18
:1009500001D0122C13D1D40800EB8404A346D4F8A0
:10096000209054074FEAD46A0EFA0AF629EA0609DB
:100970000E6906FA0AF646EA0906CBF82060066810
:100980000C7926EA0C0604F00304BC4034430460EE
:100990004C68E40065D5364C266846F480462660EF
:1009A000246822F0030604F480440094314C34445B
:1009B000A446D4F808489607370F0EFA07F6B44352
:1009C0002D4EB04201D1002624E02C4EB04201D180
:1009D00001261FE02A4EB04202D102261AE040E072
:1009E000284EB04201D1032614E0274EB04201D177
:1009F00004260FE0254EB04201D105260AE0244E20
:100A0000B04201D1062605E0224EB04201D10726B0
:100A100000E00826BE402643CCF808681E4E346825
:100A20004F689C43FF0300D51C4334601A4C241DBF
:100A300026684F689E43BF0300D51E432660164EAE
:100A4000083634684F689C43FF0200D51C4334606D
:100A5000114E0C3634684F689C43BF0200D51C43CE
:100A60003460521C102AFFF445AFBDE8F88F000037
:100A700044380240003001400000024000040240BF
:100A800000080240000C0240001002400014024026
:100A900000180240001C0240003C014001488068F0
:100AA0007047000024000020024881680278114449
:100AB00081607047240000200B4810B5016841F4A4
:100AC00000710160016841F480610160016841F4D6
:100AD00080710160032000F06FF8002000F006F83C
:100AE00000F024F8002010BD003C024070B50D4D10
:100AF00004464FF47A712878B1FBF0F00A4909688E
:100B0000B1FBF0F000F002FB48B9102C07D2002234
:100B10002146501E00F030F800206C6070BD0120AE
:100B200070BD000024000020300000200A4808B5F5
:100B3000016841F480410160006800F48040009049
:100B40000548001F016841F080510160006800F015
:100B50008050009008BD000044380240002809DBA6
:100B600000F01F02012191404009800000F1E020C7
:100B7000C0F8001170470000F0B40E4B1B680C4623
:100B8000C3F30223C3F10705042D00D90425191D61
:100B9000072901D2002300E0DB1E012606FA05F139
:100BA000491E214099409E40761E16403143F0BCBC
:100BB00000F047BF0CED00E0064900F007020868AE
:100BC0004FF6FF03184040EA0220034A1043086032
:100BD000704700000CED00E00000FA052DE9F04739
:100BE0000E46050065D0DFF81481D8F80000F7B292
:100BF00000F00F00B04207D288F80070D8F800006B
:100C000000F00F00B04254D128683D4C810712D546
:100C1000400703D5206840F4E050206028780007A2
:100C200003D5206840F4604020602068A96820F067
:100C3000F000084320602878C0072DD0304968684C
:100C40000839012812D0022813D0032811D00968CE
:100C5000890700292DDA216821F003010143216071
:100C6000FFF71CFF814641F2883A0EE009688903CC
:100C7000EFE709688901ECE7FFF710FFA0EB090136
:100C8000514502D90320BDE8F0872068696800F06B
:100C90000C00B0EB810FEFD1D8F80010404601F006
:100CA0000F01B14207D90770006800F00F00B04291
:100CB00001D00120E7E72878400705D52068E968DA
:100CC00020F4E050084320602878000706D520680B
:100CD000296920F4604040EAC100206000F038F843
:100CE0002168084AC1F30311515CC84006490860F5
:100CF00006480068FFF7FAFE0020C4E7003C024007
:100D000008380240111C0008300000202800002094
:100D10000448054900680968044AC1F38221515C0E
:100D2000C84070473000002008380240211C0008ED
:100D30000448054900680968044AC1F34231515C1E
:100D4000C84070473000002008380240211C0008CD
:100D5000154810B5006810F00C02144813D041106B
:100D6000042A0FD0082A0ED10F4C241F22682368B2
:100D700002F03F025B0207D52068C0F38810A0FB99
:100D8000010106E0084610BD2168C1F38811A1FBEE
:100D900000010023FFF716FA2168C1F30141491C45
:100DA0004900B0FBF1F010BD083802400024F40007
:100DB0002DE9F84F04006ED02078DFF83C93C0078F
:100DC000A9F104054AD009F104000168C1F38101C9
:100DD000012908D00068C0F3810002280AD1D9F89F
:100DE0000000400206D52868800337D560680028D7
:100DF000E1D033E06068B0F5803F10D0B0F5A02FAF
:100E0000286810D020F480302860286820F48020E2
:100E100028606068A8B1FFF741FE06460DE028682B
:100E200040F48030F4E740F480202860F7E700BF0A
:100E3000FFF734FE801B642873D828688003F7D539
:100E40000CE0FFF72BFE064605E000BFFFF726FE8D
:100E5000801B6428F0D828688003F7D42078DFF856
:100E60009C8280074FF0000A3ED5A348001D016810
:100E700011F00C0F08D00068C0F3810002280BD1DC
:100E8000D9F80000400207D42868800716D5E0682A
:100E9000012800D112E02BE1E068B8B10120C8F8C8
:100EA0000000FFF7FBFD064605E000BFFFF7F6FD7B
:100EB000801B0228C0D828688007F7D528682169D8
:100EC00020F0F80040EAC10028600DE0C8F800A05A
:100ED000FFF7E4FD064604E0FFF7E0FD801B022873
:100EE0001FD828688007F7D42078000722D5824EC3
:100EF00083486169703671B101210160FFF7CEFD51
:100F0000074604E0FFF7CAFDC01B022809D8306875
:100F10008007F7D50EE0C0F800A0FFF7BFFD074639
:100F200005E082E0FFF7BAFDC01B02287DD83068DB
:100F30008007F7D42078400768D5DFF8BCB10027D8
:100F40000BF13C0BDBF80000C0000BD4DBF8001009
:100F500041F08051CBF80010DBF80000012700F0D1
:100F600080500090674E3068C00510D4306840F45F
:100F700080703060FFF792FD009005E0FFF78EFD76
:100F80000099401A022850D83068C005F6D55A4E4C
:100F9000A0686C3601280FD00528306810D020F0EA
:100FA00001003060306820F004003060A068B8B103
:100FB000FFF774FD00900FE0306840F00100F4E7A7
:100FC00040F004003060F7E7FFF768FD0099411A30
:100FD00041F28830814266D830688007F4D50EE04F
:100FE000FFF75CFD009007E0FFF758FD0099411AFC
:100FF00041F28830814256D830688007F4D42FB14E
:10100000DBF8001021F08051CBF80010A069C8B3C4
:101010003949091D0968C1F3810102294AD0022812
:10102000504607D0C8F8600000E03CE0FFF736FD0E
:1010300004463BE04746C8F86000FFF72FFD064630
:1010400005E000BFFFF72AFD801B02282BD8286887
:101050008001F7D4D4E907010843A16A2A4A490864
:1010600002EB0141626A41EA8211084394F82C10B4
:1010700040EA0161C9F8001001203866FFF70EFD53
:10108000044606E036E000BFFFF708FD001B02281B
:1010900009D828688001F7D52CE000BFFFF7FEFCD7
:1010A000001B022802D90320BDE8F88F28688001C0
:1010B000F4D41FE00128F7D0D9F80000E26900F469
:1010C0008001914214D1226A00F03F0191420FD178
:1010D00047F6C071626A0140914209D1A26A00F4E8
:1010E0004031914204D1E16A00F07060884201D041
:1010F0000120D9E70020D7E704380240000047422A
:10110000800E4742007000400000FFFF10B5401EF7
:10111000B0F1807F01D3012010BD4FF0E024606169
:101120000F21601700F08DFC0020A06107202061D6
:10113000002010BD70B590F83C20012A32D0012467
:1011400080F83C40022280F83D2003685A689D6880
:1011500022F070060A6832435A60134B02689A42C2
:1011600014D0B2F1804F11D0104B9A420ED0104BD8
:101170009A420BD00F4B9A4208D00F4B9A4205D09F
:101180000E4B9A4202D00E4B9A4204D1496825F088
:1011900080031943916080F83D40002180F83C10A5
:1011A000084670BD022070BD0000014000040040F0
:1011B00000080040000C00400004014000400140D5
:1011C0000018004010B5040003D094F83D0010B1A1
:1011D00007E0012010BD002084F83C00204600F00C
:1011E0000DF8022084F83D00211D206800F064FA0B
:1011F000012084F83D00002010BD000008B5006803
:101200000649884208D10648016841F01001016092
:10121000006800F01000009008BD000000100040C1
:1012200040380240022180F83D1001688A6802F0CF
:101230000702062A03D00A6842F001020A6001216F
:1012400080F83D10002070477047000070B50268BC
:1012500004461068D168536910F00F0F52D003F0A4
:10126000010501F490762E435FD0C20705D0CA0570
:1012700003D5E26B42F00102E263420705D5DA07CB
:1012800003D0E26B42F00202E263820705D5DA077F
:1012900003D0E26B42F00402E263020707D501F0DB
:1012A00020022A4303D0E26B42F00802E263E26BC1
:1012B000002A33D0800604D5880602D5204600F0E7
:1012C00075FA20684069E16BC0F38010090700D40B
:1012D00028B3204600F05CFA2068416949061AD517
:1012E000416921F040014161606BA0B11B4901657A
:1012F000606BFFF773F9002810D0606B016DBDE8DB
:1013000070400847830610D58B060ED52046BDE8F1
:10131000704000F04BBA2046FFF796FF70BD2046A4
:10132000FFF792FF0020E06370BD030606D50B06B1
:1013300004D52046BDE8704000F018BB4006F3D548
:101340004806F1D5D168204621F04001D160202126
:1013500084F8391000F017F970BD000081170008FB
:1013600070B5040004D094F83900002510B106E0EF
:10137000012070BD84F83850204600F023F8242066
:1013800084F839002068C16821F40051C16020460A
:1013900000F058FA2068016921F490410161206849
:1013A000416921F02A0141612068C16841F400517E
:1013B000C160E563202084F8390084F83A000020F9
:1013C00070BD000010B586B0044614216846FEF7D3
:1013D00031FF18492068884229D117480021026846
:1013E00042F480220260006800F4802005901248D8
:1013F0001038026842F002020260006800F0020049
:1014000005904FF4406000900220CDE901010320D7
:1014100003900720049069460848FFF763FA00220A
:1014200011462720FFF7A8FB2720FFF797FB06B000
:1014300010BD000000480040403802400004024057
:1014400090F83A30202B22D1F9B1F2B190F838302F
:10145000012B1CD081628285C2850021C1632222BA
:1014600080F83A2080F838100168CA6842F4807227
:10147000CA6001684A6942F001024A610068C168B5
:1014800041F02001C1600020704701207047022018
:101490007047000070B50B4A114690685468431CB1
:1014A00009681D46A34200D10B46D668B34208D056
:1014B000054BA5421B78037001D1084600E0401C93
:1014C000906070BD74000020000000202DE9F843FA
:1014D000044690F839001F4616460D46202850D184
:1014E000B5B1AEB194F8380001284AD0012084F893
:1014F00038004FF00008C4F83C80212084F83900FF
:10150000FFF7CCFAA6848146E68484F8388026E08A
:101510000120BDE8F883E08C401EE084A0684B46C3
:10152000B0F5805F4FF000024FF080012046009739
:1015300003D000F04CFAE8B90DE000F048FAC8B961
:1015400028882168C0F308004860206908B16D1C34
:1015500005E0AD1C03E0216815F8010B4860E08C44
:101560000028D8D14B46002240212046009700F0A9
:101570002EFA08B10320CCE7202084F8390000209F
:10158000C7E70220C5E700BF7047FEE7114808B56E
:10159000016841F004010160016801F0040100915B
:1015A000016841F080010160016801F08001009153
:1015B000016841F001010160016801F00101009141
:1015C000016841F002010160006800F00200009033
:1015D00008BD000030380240FEE7FEE7704710B556
:1015E000044600F0DDFA48B100210D2802D10120A7
:1015F00010BD491C625C002AFBD16054002010BD64
:101600007047FFF751BA000030B593B030216846FB
:10161000FEF710FE14210CA8FEF70CFE1D48002555
:10162000016841F080510160006800F08050119025
:101630001948016841F4804101600068022400F407
:101640008040119001200090000401908001CDE9BC
:10165000064004200890A820CDE9090408200B903A
:101660006846FFF7A5FB08B172B6FEE70CA90F208C
:1016700081E831004FF4A0500F904FF4805010904B
:1016800005210CA8FFF7AAFA002801D072B6FEE7E0
:1016900013B030BD4038024000700040054801687A
:1016A00041F47001016003494FF000608039086027
:1016B0007047000088ED00E0F0B50268254C264D2B
:1016C000264E274F274B4FF0804CA04209D0604553
:1016D00007D0A84205D0B04203D0B84201D098420A
:1016E00004D122F0700E4A6842EA0E02A0421BD0DA
:1016F000604519D0A84217D0B04215D0B84213D0D7
:10170000984211D0184DA8420ED0184DA8420BD0C7
:10171000174DA84208D0174DA84205D0164DA84233
:1017200002D0164DA84203D122F44075CA682A435C
:101730004D6922F080022A4302608A68C2620A6808
:101740008262A04201D0984201D10969016301215E
:101750004161F0BD0000014000040040000800406D
:10176000000C0040000401400040014000440140E2
:101770000048014000180040001C004000200040CC
:1017800010B5806B0021C185C184FFF75DFD10BDE0
:101790000168CA6822F49072CA6001684A6922F03E
:1017A00001024A61202180F83A10704710B590F884
:1017B0003A10222901D0022010BD8168B1F5805F66
:1017C00011D00169002901681FD0496801F07F0329
:1017D000816A4A1C82620B70C18D491E0904090C82
:1017E000C18518D02BE00269816A002A026852681C
:1017F00005D0D2B20A80816A491C8162ECE7C2F34B
:1018000008020A80816A891CF7E74A68816A4B1CD2
:1018100083620A70E0E70168CA6822F02002CA60A9
:101820000168CA6822F48072CA6001684A6922F0BD
:1018300001024A61202180F83A10FFF72BFE0020B8
:1018400010BD00002DE9F041044600680169E2681E
:1018500021F44051114301612169A068E269084304
:101860006169114308432168CA6849F20C639A43CD
:101870000243CA6020684169A26921F440711143A2
:101880004161E069192764253226B0F5004F354AD9
:10189000354920684FF0000806D0884201D09042B8
:1018A00036D1FFF745FA35E0884201D0904202D1A7
:1018B000FFF73EFA01E0FFF72BFA61684A18A0FB38
:1018C000070148EB0803FEF77DFC0146B0FBF5F08D
:1018D0000201B1FBF5F06FF01803584301EB8000F3
:1018E00006EBC000B0FBF5F000F0F80002EB4002A0
:1018F000B1FBF5F0584301EB800006EBC000B0FBF4
:10190000F5F000F00700216810448860BDE8F08120
:10191000FFF7FEF961688B0F8A00A0FB0701FEF755
:1019200051FC0146B0FBF5F06FF01802504301EB9B
:10193000800006EB0010B0FBF5F000F0F002B1FB08
:10194000F5F002EB0012B1FBF5F06FF0180358430D
:1019500001EB800006EB0010B0FBF5F000F00F008B
:10196000D1E70000001401400010014090F8391048
:10197000212901D0022070478168B1F5805F016A9A
:101980000BD04A1C0262026809785160C18C491E62
:101990000904090CC1840ED017E009880268C1F35C
:1019A0000801516001690029016A02D0491C0162E5
:1019B000ECE7891CFBE70168CA6822F08002CA6074
:1019C0000068C16841F04001C160002070472DE906
:1019D000F041984617460E460446069D1DE0681CD9
:1019E0001BD02DB1FFF75AF8A0EB0800A84214D97C
:1019F0002068C16821F4D071C1602068416921F07C
:101A000001014161202084F8390084F83A00002067
:101A100084F838000320BDE8F0812068006836EAC9
:101A2000000004D00020B842D9D00020F3E7012004
:101A3000F9E700000148FFF709BC0000F8000020AA
:101A4000FEE70907090E002804DB00F1E02080F81A
:101A50000014704700F00F0000F1E02080F8141D22
:101A6000704702E008C8121F08C1002AFAD1704767
:101A70007047002001E001C1121F002AFBD170470E
:101A80001CB5FFF719F8FFF7BFFDFFF77FFD3D48D5
:101A90000024016841F4001101600068224600F44E
:101AA0000010009021461020FFF766F81020FFF785
:101AB00055F8364900943448019408600846FEF70A
:101AC000ABFC08B172B6FEE70420CDE900040022A9
:101AD00069462E48FEF77CFC08B172B6FEE72B483B
:101AE000009414302A490194C0E9001441F298315D
:101AF000C0E9024180218161FFF764FB08B172B641
:101B0000FEE72020CDE90004204869461430FFF7A5
:101B100011FB08B172B6FEE71C481E495430016043
:101B20004FF49641C0E901140C21C460C0E904419E
:101B30008461C461FFF714FC08B172B6FEE7134874
:101B40001430FFF76FFB082000904123124A002158
:101B50000E48FEF7C3FC0D48012210495430FFF730
:101B60006FFC0E49094864232022491C5430FFF7BA
:101B7000ADFC06482038FFF732FD0128F9D100BF3F
:101B8000F7E700003038024000740040A400002055
:101B90000010004000480040C81B00080000002062
:101BA000084A10B5D2E90201884209D05468087881
:101BB0004B1CA34201D1116800E0491CD16010BD4B
:101BC000002010BD740000207F8B97A3AFBAC5CF53
:101BD000D8E1E8EFF4F8FBFDFEFDFBF8F4EFE8E1F7
:101BE000D8CFC5BAAFA3978B7F73675B4F44392FAC
:101BF000261D160F0A060301000103060A0F161D13
:101C0000262F39444F5B67737F00061016000610BD
:101C1000160000000000000000010203040607088F
:101C20000900000000010203040000004C1C000831
:101C30000000002034000000621A0008801C000828
:101C40003400002064050000721A0008005374611B
:101C500072740D0A00000000000000000000000087
:101C60000000000000000000000000000000000074
:101C70000100000010000000000000000024F4003B
:040000050800018965
:00000001FF
