:020000040800F2
:10000000680900209D010008EF25000875230008FD
:10001000ED2500082F030008652B000800000000F4
:10002000000000000000000000000000F3250008B0
:100030000F04000800000000F1250008F525000865
:10004000B7010008B7010008B7010008B7010008B0
:10005000B7010008B7010008B7010008B7010008A0
:10006000B7010008B7010008B701000891030008B4
:10007000B70100089D030008B7010008B701000898
:10008000B7010008B7010008B7010008B701000870
:10009000B7010008B7010008B7010008B701000860
:1000A000B7010008B7010008B7010008B701000850
:1000B000B7010008B7010008B7010008B701000840
:1000C000B7010008B7010008B7010008B701000830
:1000D000B7010008B7010008B7010008B701000820
:1000E000B7010008B7010008B7010008B701000810
:1000F000B7010008B7010008B7010008B701000800
:10010000000000000000000000000000B70100082F
:10011000B7010008B7010008B7010008B7010008DF
:10012000B7010008B7010008B7010008B7010008CF
:10013000B7010008B701000800000000000000003F
:10014000B7010008B7010008B7010008000000006F
:10015000000000000000000000000000000000009F
:100160000000000000000000B7010008B70100080F
:10017000B7010008000000000000000000000000BF
:1001800000000000B7010008DFF80CD000F08CF888
:1001900000480047A52B0008680900200648804752
:1001A00006480047FEE7FEE7FEE7FEE7FEE7FEE75C
:1001B000FEE7FEE7FEE7FEE7892600088901000862
:1001C0002DE9F05F0546002092469B46884606468C
:1001D000814640241BE0284641464746224600F01F
:1001E00020F853465A46C01A914110D3114618467A
:1001F000224600F04AF82D1A67EB01084F462246C6
:100200000120002100F041F817EB00094E41201EAB
:10021000A4F10104DFDC484631462A464346BDE8E6
:10022000F09F202A04DB203A21FA02F000217047D7
:1002300021FA02F3D040C2F120029140084319464E
:10024000704740EA01039B0703D009E008C9121F69
:1002500008C0042AFAD203E011F8013B00F8013B80
:10026000521EF9D27047D2B201E000F8012B491EAC
:10027000FBD270470022F6E710B513460A46044643
:100280001946FFF7F0FF204610BD202A04DB203A74
:1002900000FA02F1002070479140C2F1200320FAD9
:1002A00003F3194390407047064C074D06E0E068A1
:1002B00040F0010394E8070098471034AC42F6D3AD
:1002C000FFF766FFF42C0008142D000870B50446F3
:1002D0000068816801F00301012926D10168C9077E
:1002E00023D0816801F00D01012910D1816841F00E
:1002F0000201816021680320086000F0EDFE0546E0
:100300000FE000BF00F0E8FE401B022809D9206C76
:1003100040F010002064606C40F001006064012037
:1003200070BD20688068C007ECD1002070BDFEE77A
:1003300010B5446A204600F053FC0120207110BD26
:1003400010B5446A204600F027FC0120207110BD42
:1003500010B5446A206940F004002061204600F096
:1003600041FC0120207110BD10B5446A206940F0A5
:1003700004002061204600F011FC0120207110BD16
:10038000406A00F02EBC10B5406A00F006FC10BDBB
:10039000014800F00BBD0000E0040020014800F01F
:1003A00005BD0000240500200B4B01681422994272
:1003B00007D20A4B1944B1FBF2F1890001640849E4
:1003C00008E0054B5B421944B1FBF2F1890001647E
:1003D00001490839C163704708040240F8FFFDBFB6
:1003E0000000024030B590F840500124AC40C56B8D
:1003F0006C60046863604368102B036803D09960E5
:100400000068C26030BD9A600068C16030BD70474E
:1004100072B6FEE7F0B5002302684FF0A04C3E4CE8
:1004200094B01F46624501D100940DE0A24202D172
:10043000CDF800C008E0394D394EAA4201D10096EE
:1004400002E0B24214D1009590F83C50012D12D038
:10045000012580F83C5095686D0753D4009DAD6828
:100460006D074FD4624501D0A24206D12D4A05E066
:10047000012014B0F0BD0220FBE72B4A0D6840F6C6
:100480001F7425B3956890F8306025F4604545EAFF
:1004900046354E68354395600568AE6806F003063C
:1004A000012E02D12D68ED0731D1009DAD6805F018
:1004B0000305012D03D1009D2D68ED0727D10D689F
:1004C00089680D439168A1430D4395601FE09168D1
:1004D00021F46041916001688D6805F00305012DEC
:1004E00002D10968C90712D10099896801F0030196
:1004F000012903D100990968C90708D19168A1436E
:10050000916004E0016C41F020010164012380F856
:100510003C701846ADE70000000100500004005098
:10052000000500500003005000070050F0B594B0E3
:100530000024009490F83C202546012A19D0012778
:1005400080F83C7003689A6852077CD44A681F267A
:10055000052A11D2D3F830C002EB42025200964075
:100560002CEA060C0E6896404CEA060CC3F830C024
:1005700035E0022014B0F0BD0A2A0FD2D3F834C0FF
:10058000521F02EB4202520096402CEA060C0E6803
:1005900096404CEA060CC3F834C020E00F2A0FD274
:1005A000D3F838C00A3A02EB4202520096402CEAD5
:1005B000060C0E6896404CEA060CC3F838C00EE0F4
:1005C000D3F83CC00F3A02EB4202520096402CEAAC
:1005D000060C0E6896404CEA060CC3F83CC0026854
:1005E000936813F00C0F4FF0070374D1D1F800E0BB
:1005F000BEF10A0F10D39669AEF10A0E0EEB4E0C47
:1006000003FA0CFE26EA0E06D1F808E00EFA0CFEFC
:1006100046EA0E0696610FE0D2F814C00EEB4E06C5
:1006200003FA06FE2CEA0E0CD1F808E00EFA06FEDC
:100630004CEA0E0CC2F814C002684E69D2F80CC025
:10064000CCF3C10C00E0FDE04FEA4C0C06FA0CF6CE
:10065000D1F810E0DFF848C2BEF1010F42D0BEF180
:10066000020F4DD0BEF1030F58D0BEF1040F63D07E
:10067000166E91F800C006F0F846B6EB8C6F03D109
:10068000166E26F0004616660268566E91F800C097
:1006900006F0F846B6EB8C6F03D1566E26F0004696
:1006A00056660268966E91F800C006F0F846B6EB02
:1006B0008C6F03D1966E26F0004696660268D66E61
:1006C00091F800C006F0F846B6EB8C6F03D1D66EF9
:1006D00026F00046D6660268966806F00306012EEC
:1006E0003AD136E0D2F860E00EEA0C0E91F800C084
:1006F00046EA8C664EEA060E4EF000461666EAE7BB
:10070000D2F864E00EEA0C0E91F800C046EA8C665E
:100710004EEA060E4EF000465666DCE7D2F868E078
:100720000EEA0C0E91F800C046EA8C664EEA060E00
:100730004EF000469666CEE7D2F86CE00EEA0C0E5C
:1007400091F800C046EA8C664EEA060E4EF000466E
:10075000C0E71668F6077AD1CE68012E06D052F8A7
:10076000B03F0E78B740BB43136021E052F8B06F42
:1007700091F800C007FA0CF73E4316600A680A2A8F
:100780000BD30668B769093A02EB420293409F43D4
:100790008B6893401F43B7610AE007687E69521C6B
:1007A00002EB420293409E438B6893401E437E615E
:1007B00003684FF0A0473B4EBB4201D0B34201D18A
:1007C000394A00E0394A0968102904D0112907D0B4
:1007D00012290AD03BE0D2F808C04FEA0C2C08E0FE
:1007E000D2F808C04FEACC1C03E0D2F808C04FEAA8
:1007F0004C2CBCF1000F2ADBBB420DD0B34201D11F
:1008000000970CE02A4EDFF8ACC0B34202D1CDF81D
:1008100000C004E0634501D1009600E000959E68A9
:1008200006F00306012E02D11E68F6070AD1009ECB
:100830008EB1B66806F00306012E0CD1009E366814
:10084000F60708D0016C41F020010164012480F812
:100850003C5020468EE6102908D011291AD01229C2
:10086000F5D1916841F480019160F0E7BB42EED18F
:10087000916841F4000191600F49104A0968B1FB89
:10088000F2F101EB8101490000E0491E00910029CD
:10089000FBD1DCE7BB42DAD1916841F08071E3E73C
:1008A00000F0FF83000100500003005000070050DB
:1008B00000040050000500500C00002040420F00D2
:1008C000F0B54FF0000695B0040037463546009667
:1008D00005D0206CC00648D4206C18B133E001204C
:1008E00015B0F0BD6564E564A56484F83C5020460D
:1008F00000F00CF920688068C00024D42046FFF77F
:10090000E5FC0646206CC0061DD4E6B9206C20F438
:10091000885040F0020020642068816821F0405136
:1009200081602068816841F0805181606E486F4924
:100930000068B0FBF1F000EB8000400000E0401EDA
:1009400000900028FBD120688168C90002D580682A
:1009500080000AD5206C20F0020040F010002064D6
:10096000606C40F0010060640126206CC00676D403
:10097000002E74D120688168490770D4216C21F45D
:10098000807141F0020121644FF0A04E584B704538
:1009900001D0984201D1574A00E0574ADFF85CC1C4
:1009A0005749704501D100930EE0984202D1CDF82D
:1009B00000E009E0884202D1CDF800C004E06045C3
:1009C00001D1009100E00095836803F00303012B3F
:1009D00002D10068C00710D1009840B1806800F0D3
:1009E0000300012803D100980068C00705D1906872
:1009F000636820F4403018439060D4E9022010432B
:100A0000626B012A02D04FF4805300E00023627E23
:100A100043EA4233184394F820303843012B0AD17B
:100A2000F2B1226C22F0020242F020022264626CD7
:100A300042F001026264A26A012A21D023688B423B
:100A400001D0634518D14FF430774FF4E071BA42CA
:100A500013D04FF480739A420AD139460DE039E041
:100A6000A28C284B03EB4242024342F48030E2E77F
:100A70008A4201D1194600E011460143E06A084369
:100A800021688A6812F00C0F0BD1CA6844F2020385
:100A90009A43CA60217E94F83020890341EA4201DA
:100AA00008432268D168184B19400143D16020697E
:100AB00001282068016B21F00F0102D1E269521E6A
:100AC000114301636564206C20F0020040F00100D6
:100AD000206406E0206C20F0020040F0100020644A
:100AE00001263046FCE600000C00002040420F00CA
:100AF00000010050000300500007005000050050A6
:100B0000000400500000FEFF07C0F0FF70B586B083
:100B1000054614216846FFF7ADFB2868B0F1A04FE9
:100B200031D11A49486940F080504861486900F065
:100B300080500590486940F40030486148690026BB
:100B400000F400300590022000900320CDE901065A
:100B500069464FF0904000F0DDF90E4C0C48C4E9B6
:100B600000068020C4E902604000206180006061CE
:100B70002020C4E90606204600F06CF908B1FFF712
:100B800047FCAC63656206B070BD00000010024017
:100B900008000240E004002070477047704770B5BD
:100BA0004379012B1AD0012646710223037105688F
:100BB0002C6840F6FE7393409C43D1E900310B430F
:100BC000934023432B6001680B68C0249440A343E7
:100BD0000B60067100214171084670BD022070BD96
:100BE00070477047704770B5040003D02079002526
:100BF00010B105E0012070BD6571204600F008F8D5
:100C000002202071256101202071002070BD0000AC
:100C1000F0B587B0054614216846FFF72BFB1E4947
:100C20002868884235D11D49C86940F00050C86124
:100C3000C86900F000500590486940F400304861F0
:100C40004869102700F40030009705900320002623
:100C5000CDE9010669464FF0904000F05BF9114C78
:100C60000F48C4E900078020C4E902602020266103
:100C7000C4E905600002E061204600F0EBF808B12D
:100C8000FFF7C6FB0848016841F400510160AC6001
:100C9000656207B0F0BD0000007400400010024023
:100CA0003000024024050020000001402DE9F04101
:100CB00004460D461746617900220698012920D086
:100CC0000126667102212171F5B1D4F80CC03149B9
:100CD000CCF82810D4F80CC02F49CCF82C10D4F83C
:100CE0000CC02E49CCF830102168D1F800C04CF06F
:100CF000805CC1F800C090B3042834D0082837D1F4
:100D000034E00220BDE8F081D4F808C02449CCF8D2
:100D10002810D4F808C02349CCF82C10D4F808C007
:100D20002149CCF830102168D1F800C04CF4805C27
:100D3000C1F800C020B1042805D0082808D105E07A
:100D40002268083204E022680C3201E02268103286
:100D50002068016841F400510160A0680EE0FFE7DF
:100D60002268143204E02268183201E022681C3242
:100D70002068016841F000510160E068394600F0E8
:100D800090F80020607120680168AE403143016036
:100D90000020B7E741030008870300086903000843
:100DA000310300088103000851030008F0B4C16B4F
:100DB0000D6801680C68066C042202FA06F32B42E7
:100DC0000FD063070DD50B689B0603D40B6823F087
:100DD00004030B6090F840108A40C16B4A60C16AFE
:100DE0001BE0022303FA06F72F424FF0000C4FF0EE
:100DF000010216D0A70714D50C68A40605D40C6808
:100E000024F00A040C6080F8212090F840108B40F8
:100E1000C16B4B6080F820C0816A002918D0F0BCFB
:100E200008470823B3402B4212D0230710D50B6884
:100E300023F00E030B6090F84010C36B02FA01F12F
:100E40005960826380F8212080F820C0016BE4E7BC
:100E5000F0BC704770B5040021D0022084F8210056
:100E60002268116843F6F0708143D4E90103184306
:100E7000D4E903352B43184363691843A369184326
:100E8000E3691843084310602046FFF78DFA0020FD
:100E9000A063012184F8211084F8200070BD012096
:100EA00070BD70B5044690F82000002501280CD0D4
:100EB000012084F8200094F821600020012E06D043
:100EC00084F820000225284670BD022070BD02264D
:100ED00084F82160A0632068066826F00106066099
:100EE0002046FFF77FFAE06A00282068016802D0F8
:100EF00041F00E0106E041F00A010160206801683E
:100F000021F0040101602068016841F001010160E5
:100F1000D9E700002DE9FC4FDFF894A1002301255B
:100F20000AF1040B03244FF00F0C0BF1040EB8E090
:100F300005FA03F632406FD04F68012F05D0022F1B
:100F400003D0112F01D0122F17D1D0F808905F00D5
:100F500004FA07F829EA08090097D1F80C8008FA82
:100F600007F848EA0908C0F808804768B7430E79CF
:100F7000C6F300169E403E434660C6684FEA4308EB
:100F800004FA08F7BE4301978F6807FA08F737435A
:100F9000C7604E68022E01D0122E13D1DE0800EB7E
:100FA00086060096366A5F07FF0E0CFA07F926EAF6
:100FB0000906D1F8109009FA07F949EA0609009ED6
:100FC000C6F820900668019FBE430F7907F003071B
:100FD00007FA08F7374307604E68F60060D5354ECC
:100FE000B76947F00107B761B66923F0030706F058
:100FF00001060096304E3E44B146B6689F074FEA60
:1010000017780CFA08F7BE43B0F1904F05D02B4F7C
:10101000B84204D1012712E042E000270FE0284F38
:10102000B84201D102270AE0264FB84201D1032776
:1010300005E0254FB84201D1042700E0052707FA53
:1010400008F73743C9F80870DAF800605746D1F856
:10105000048096435FEAC83800D516433E60DBF84B
:1010600000605F46D1F8048096435FEA883800D577
:1010700016433E60DEF800607746D1F80480964360
:101080005FEAC82800D516433E60094F0C373E681A
:10109000D1F8048096435FEA882800D516433E6065
:1010A0005B1C0A6832FA03F67FF442AFBDE8FC8F9E
:1010B000000401400010024000000140000400480C
:1010C00000080048000C0048001000480AB1816187
:1010D00070478162704700000148806870470000D7
:1010E0000000002090F84120202A24D190F84020D0
:1010F000012A20D0012280F84020242280F84120BB
:101100000268136823F0010313600268136823F474
:1011100080531360026813680B43136001680A6808
:1011200042F001020A60202180F84110002180F87D
:101130004010084670470220704790F84120202A4E
:1011400022D190F84020012A1ED0012280F84020B0
:10115000242280F841200268136823F00103136001
:101160000268136823F4706343EA01211160016887
:101170000A6842F001020A60202180F84110002133
:1011800080F84010084670470220704770B5040090
:1011900004D094F84100002510B106E0012070BD94
:1011A00084F84050204600F04DF8242084F8410097
:1011B0002068016821F0010101606068216820F069
:1011C000706008612068816821F400418160E068F6
:1011D0000128A06807D040F4044021688860E068D6
:1011E000022803D006E040F40040F6E721684FF4FF
:1011F0000060486020684168114A114341602068DE
:10120000C16821F40041C160D4E904010843A16927
:1012100040EA01202168C860D4E907010843216839
:1012200008602068016841F00101016065642020C8
:1012300084F84100256384F84250002070BD00000E
:101240000080000210B586B0044614216846FFF7FE
:1012500011F81249206888421ED1114C606940F48F
:10126000802060616069694600F480200590C0209C
:10127000009012200190012002900320039004208E
:1012800004900848FFF746FEE06940F40010E06172
:10129000E06900F40010059006B010BD0054004055
:1012A000001002400004004802488168027811449E
:1012B0008160704700000020074810B5016841F0C8
:1012C00010010160032000F06FF8002000F006F824
:1012D00000F024F8002010BD0020024070B50D4D34
:1012E00004464FF47A712878B1FBF0F00A49096896
:1012F000B1FBF0F000F092FE48B9102C07D20022AA
:101300002146501E00F030F800206C6070BD0120B6
:1013100070BD0000000000200C0000200A4882B0D0
:10132000816941F001018161816901F00101009150
:10133000C16941F08051C161C06900F080500090E6
:10134000072002B000F030B800100240002809DB8E
:1013500000F01F02012191404009800000F1E020CF
:10136000C0F8001170470000F0B40E4B1B680C462B
:10137000C3F30223C3F10705042D00D90425191D69
:10138000072901D2002300E0DB1E012606FA05F141
:10139000491E214099409E40761E16403143F0BCC4
:1013A00001F0E1BB0CED00E0064900F0070208681F
:1013B0004FF6FF03184040EA0220034A104308603A
:1013C000704700000CED00E00000FA0570B586B033
:1013D000040004D094F8A902002518B107E0012008
:1013E00006B070BD84F8A852204600F043F80320F0
:1013F00084F8A902206801F0AEFB002001260EE06F
:1014000000EB800104EBC10181F8296001F8280F8D
:10141000C881CD700D614D61401CC0B28D616168A5
:101420008142EDD8002011E000EB800104EBC10106
:1014300081F8695181F8680181F86B51C1F87851E0
:10144000C1F87C51401CC0B2C1F880516168814232
:10145000EAD8142204F110016846FEF7F2FE94E87F
:101460000F0001F06FFB84F8245084F8A96200207B
:10147000B6E7000010B586B0044614216846FEF7B2
:10148000F9FE13492068884220D1124C606940F46B
:10149000003060616069694600F4003005904FF4E7
:1014A000C050009002200190002002900320039081
:1014B0000E2004904FF09040FFF72CFDE06940F4BF
:1014C0000000E061E06900F40000059006B010BD86
:1014D000005C0040001002402DE9F84F044600680F
:1014E0000026804DC0036ED5E869C00008D4E869C5
:1014F00040F08050E861E869012600F080500090DB
:1015000079480168C90512D40168804641F48071A8
:101510000160FFF7E1FD074605E000BFFFF7DCFDD6
:10152000C01B642835D8D8F80000C005F6D5286A55
:1015300010F4407053D0A18801F4407181424ED024
:10154000286A4FF4803191FAA1F2B2FA82F2970040
:10155000664A4FF00108174420F44070C7F8008431
:1015600091FAA1F1B1FA81F102EB81010023C1F8F6
:1015700000342862C00732D0FFF7AEFD074641F2C3
:10158000883A4FF0020907E0FFF7A6FDC11B51455D
:1015900002D90320BDE8F88F99FAA9F0B0FA80F0DB
:1015A00040F040024946B8EB521F01D12A680CE0D6
:1015B00091FAA1F2B2FA82F242F04002B1EB521F6C
:1015C00002D12A6A01E015E06A6A99FAA9F1B1FA32
:1015D00081F101F01F0108FA01F00242D4D0286A1B
:1015E000616820F44070084328621EB1E86920F069
:1015F0008050E8612078C00705D0286BA16820F0F2
:101600000300084328632078800705D5286BE1682C
:1016100020F44030084328632078400705D5286B24
:10162000216920F44020084328632078800605D5EE
:10163000286BE16920F010000843286320688003CC
:1016400005D56868A16B20F48000084368602078A5
:10165000400605D5286B216A20F020000843286346
:101660002078000705D5286B616920F440100843F5
:1016700028632078C00605D5286BA16920F44000B6
:10168000084328632088800505D56868E16A20F44E
:101690000000084368602078000605D5E86A616AA2
:1016A00020F4F8700843E8622088C00505D5E86A90
:1016B000A16A20F478500843E8622088C00405D568
:1016C000286B216B20F480700843286320888004F5
:1016D00005D5286B616B20F4007008432863002057
:1016E00058E7000000100240007000400000424235
:1016F0002DE9F0470F46050069D04A4E306800F0EA
:101700000700B84209D2306820F007003843306043
:10171000306800F00700B84259D12878424C800761
:1017200005D56068A96820F0F0000843606028785B
:10173000C0073DD06968012001290DD0022923D0BE
:101740005FF0020393FAA3F2B2FA82F242F02002AF
:10175000520904D0226803E04FF40033F2E7626AD2
:1017600093FAA3F3B3FA83F303F01F039840024202
:101770002DD0606820F0030008436060FFF7ACFCE8
:10178000804641F288390CE04FF00073DAE700BF81
:10179000FFF7A2FCA0EB0801494502D90320BDE8F0
:1017A000F0876068696800F00C00B0EB810FEFD142
:1017B000306800F00700B8420BD9306820F007000D
:1017C00038433060306800F00700B84201D0012093
:1017D000E5E72878400705D56068E96820F4E0600F
:1017E000084360602878000706D56068296920F4FE
:1017F000605040EAC100606000F04EF86168F0227D
:1018000092FAA2F201F0F001B2FA82F2D140074A54
:10181000515CC8400649086006480068FFF75EFD55
:101820000020BCE70020024000100240D92C000834
:101830000C0000200400002008480949006849689D
:101840004FF4E06292FAA2F201F4E061B2FA82F29D
:10185000D140044A515CC840704700000C00002091
:1018600000100240E92C000808480949006849684E
:101870004FF4605292FAA2F201F46051B2FA82F28D
:10188000D140044A515CC840704700000C00002061
:1018900000100240E92C0008164A10B5516816489D
:1018A00001F00C03042B20D0082B1ED14FF4701430
:1018B00094FAA4F401F47013B4FA84F4E3400F4CE6
:1018C000D26AE45C0F2393FAA3F302F00F02B3FA97
:1018D00083F3DA40094B1033C9039A5C06D5002321
:1018E0001946FEF76DFCA0FB040110BD0448A4FBE3
:1018F000000110BD0010024000127A00B92C00084F
:1019000000093D002DE9F84F050071D02878FC4E04
:10191000C0074FF0010425D070686704C0F3810050
:10192000012807D07068C0F3810002281BD17068BD
:10193000C00318D597FAA7F0B0FA80F040F0200065
:10194000400901D0306800E0706A97FAA7F1B1FA57
:1019500081F101F01F0104FA01F1084265D06868C5
:101960000028D2D061E06868B0F5803F0BD010B19C
:10197000B0F5A02F17D0306820F480303060306888
:1019800020F4802002E0306840F480303060F06A5B
:10199000A96820F00F000843F062686820B3FFF7E1
:1019A0009BFB80460AE0306840F480203060EAE724
:1019B000FFF792FBA0EB0800642871D897FAA7F014
:1019C000B0FA80F040F02000400901D0306800E01B
:1019D000706A97FAA7F1B1FA81F101F01F0104FAD8
:1019E00001F10842E4D020E0FFF776FB804607E0F3
:1019F000C2E000BFFFF770FBA0EB08006428DCD852
:101A000097FAA7F0B0FA80F040F02000400901D02A
:101A1000306800E0706A97FAA7F1B1FA81F101F03D
:101A20001F0104FA01F10842E4D12878DFF8D482DA
:101A300080074FF0000A4FF0020730D570684FF072
:101A4000F80B10F00C0F07D07068C0F3810002286B
:101A500027D17068C00324D497FAA7F0B0FA80F0B9
:101A600040F02000400901D0306800E0706A97FA29
:101A7000A7F1B1FA81F101F01F0104FA01F1084266
:101A800002D02869012877D130689BFAABF220F0A8
:101A9000F8016869B2FA82F29040014331605AE07D
:101AA00064E1286988B394FAA4F0B0FA80F048F8A9
:101AB0002040FFF711FB814606E000BFFFF70CFB5B
:101AC000A0EB090002289AD897FAA7F0B0FA80F0A4
:101AD00040F02000400901D0306800E0706A97FAB9
:101AE000A7F1B1FA81F101F01F0104FA01F10842F6
:101AF000E4D030689BFAABF26969B2FA82F220F066
:101B0000F80091400843306025E0FFE794FAA4F024
:101B1000B0FA80F048F820A0FFF7DEFA814605E031
:101B2000FFF7DAFAA0EB09000228CCD897FAA7F061
:101B3000B0FA80F040F02000400901D0306800E0A9
:101B4000706A97FAA7F1B1FA81F101F01F0104FA66
:101B500001F10842E4D1287800076CD5A869A8B340
:101B600094FAA4F0B0FA80F008EB8000C0F880444A
:101B7000FFF7B2FA814607E0A4E100BFFFF7ACFA35
:101B8000A0EB090002289ED897FAA7F0B0FA80F0DF
:101B900040F06000B4EB501F01D130680BE097FAC1
:101BA000A7F0B0FA80F040F06000B7EB501F01D111
:101BB000306A00E0706A97FAA7F1B1FA81F101F09A
:101BC0001F0104FA01F21042D8D034E0FFE794FA82
:101BD000A4F1B1FA81F108EB8101C1F880A4FFF70B
:101BE0007BFA814606E000BFFFF776FAA0EB09001A
:101BF00002289AD897FAA7F0B0FA80F040F0600077
:101C0000B4EB501F01D130680BE097FAA7F0B0FA9F
:101C100080F040F06000B7EB501F01D1306A00E067
:101C2000706A97FAA7F1B1FA81F101F01F0104FA85
:101C300001F21042D8D12878400768D5F0694FF0FA
:101C40000009C00009D4F06940F08050F061F069EB
:101C50004FF0010900F0805000902B480168C90541
:101C600012D4016841F480710160FFF735FA8346B0
:101C700006E000BFFFF730FAA0EB0B00642875D830
:101C800021480068C005F5D5E86801280AD008B1E8
:101C9000052811D0306A20F001003062306A20F04F
:101CA000040002E0306A40F001003062E86868B386
:101CB000FFF712FA83460DE0306A40F0040030620C
:101CC000F0E700BFFFF708FAA0EB0B0141F2883004
:101CD00081424BD897FAA7F0B0FA80F040F040006C
:101CE000B4EB501F01D1306813E097FAA7F0B0FAB7
:101CF00080F040F04000B7EB501F09D1306A08E097
:101D00000010024000004242007000400CE040E041
:101D1000706A97FAA7F1B1FA81F101F01F0104FA94
:101D200001F21042CED02DE0FFF7D6F9834607E04E
:101D3000FFF7D2F9A0EB0B0141F28830814215D8B0
:101D400097FAA7F0B0FA80F040F04000B4EB501FD3
:101D500001D130680CE097FAA7F0B0FA80F040F0BB
:101D60004000B7EB501F02D1306A01E083E0706A97
:101D700097FAA7F1B1FA81F101F01F0104FA01F21B
:101D80001042D5D1B9F1000F03D0F06920F0805096
:101D9000F061E86980B37168C1F38101022977D0ED
:101DA0004FF080714F000228504609D091FAA1F1FE
:101DB000B1FA81F148F82100FFF78EF905465DE0A0
:101DC000894691FAA1F1B1FA81F1C24648F82100A1
:101DD000FFF782F9804605E0FFF77EF9A0EB0800E7
:101DE000022848D897FAA7F0B0FA80F040F0200017
:101DF000400902D0306801E066E0706A97FAA7F106
:101E0000B1FA81F101F01F0104FA01F10842E3D1B6
:101E1000D5E908100843716821F474110843706013
:101E200099FAA9F0B0FA80F04AF82040FFF754F987
:101E3000054604E0FFF750F9401B02281BD897FA2B
:101E4000A7F0B0FA80F040F02000400901D03068DF
:101E500000E0706A97FAA7F1B1FA81F101F01F0171
:101E600004FA01F10842E5D02EE000BFFFF734F993
:101E7000401B022802D90320BDE8F88F97FAA7F08B
:101E8000B0FA80F040F02000400902D0306801E054
:101E90000BE0706A97FAA7F1B1FA81F101F01F0126
:101EA00004FA01F10842E1D10EE00128E4D07068A3
:101EB0002A6A00F48031914204D1696A00F47010FA
:101EC000884201D00120D7E70020D5E770B5040093
:101ED00009D0606A002540B125616561A56294F86A
:101EE0005D0040B10CE0012070BD6068B0F5827FFC
:101EF000F4D0E561F2E784F85C50204600F05CF82D
:101F0000022084F85D002068016821F04001016032
:101F1000E1684FF4E062914201D9002001E04FF402
:101F20008050B1F5706F02D0914200D0A562A188B7
:101F3000228901F4827102F404421143227C02F0EE
:101F400002021143227D02F001021143228B02F4AE
:101F500000721143227F02F03802114394F82020CE
:101F600002F080021143228D02F4005211432268D4
:101F70001160A169042202EA114194F8242000F4BE
:101F8000805002F01002114394F8342002F008024D
:101F90001143A28902F47062114301432068416039
:101FA0002068C16921F40061C1612566012084F8BF
:101FB0005D00002070BD000010B586B004461421FD
:101FC0006846FEF757F91349206888421FD1124826
:101FD000816941F480518161816901F480510591E9
:101FE000416941F4003141614069694600F40030C3
:101FF0000590E02000900220019000200290032034
:102000000390052004904FF09040FEF783FF06B048
:1020100010BD0000003001400010024010B5401E0D
:10202000B0F1807F01D3012010BD4FF0E02460614A
:102030000F21601700F097FD0020A06107202061AC
:10204000002010BDF0B590F83C20012A36D00124C4
:1020500080F83C40022280F83D2002685368956871
:10206000174E184FB24201D0BA4204D123F4700C7B
:102070004B6843EA0C0323F0700C0B6843EA0C0333
:1020800053600268B2420DD0B2F1804F0AD00E4BBD
:102090009A4207D00D4B9A4204D0BA4202D00C4B60
:1020A0009A4204D1896825F080031943916080F831
:1020B0003D40002180F83C100846F0BD0220F0BDF4
:1020C000002C0140003401400004004000080040A2
:1020D0000040014010B5040003D094F83D0010B159
:1020E00007E0012010BD002084F83C00204600F0ED
:1020F00023F8022084F83D00211D206800F0CCFA6E
:10210000012084F8480084F83E0084F83F0084F8F9
:10211000400084F8410084F8420084F8430084F8C9
:10212000440084F8450084F8460084F8470084F8A9
:102130003D00002010BD000008B50068B0F1804FE0
:1021400008D10548C16941F00101C161C06900F0D1
:102150000100009008BD00000010024090F83D1002
:10216000012901D001207047022180F83D1000684C
:102170000F4988420ED0B0F1804F0BD00D498842F4
:1021800008D00D49884205D00C49884202D00C493C
:10219000884207D181680B4A1140062906D0B1F563
:1021A000803F03D0016841F00101016000207047C9
:1021B000002C0140000400400008004000340140B1
:1021C000004001400700010070B5044690F83C0053
:1021D000012817D0012584F83C50022084F83D00E6
:1021E000226890682E4B184020F47F409060086869
:1021F000502830D00DDC20284DD005DC98B31028B5
:102200003BD148E0022070BD302844D0402834D172
:1022100039E0602828D0702806D0B0F5805F2CD037
:10222000B0F5005F29D10AE0CB68D1E9012120682F
:1022300000F08AFA2068816841F0770109E0CB68F4
:10224000D1E90121206800F07FFA2068816841F41B
:102250008041816011E0CA684968206800F086FA10
:102260005021206807E016E0CA684968206800F03D
:102270008EFA6021206800F071FA84F83D50002049
:1022800084F83C0070BDCA684968206800F06EFAA6
:1022900040212068EFE7226801461046EBE7000086
:1022A00088FFFEFF10B5040002D0A06F10B107E058
:1022B000012010BD002084F87400204600F026F8AC
:1022C0002420A0672068016821F0010101602046F8
:1022D00000F002FB0128ECD0606A10B1204600F04B
:1022E00068FA2068416821F4904141602068816863
:1022F00021F02A0181602068016841F0010101603C
:102300002046BDE8104000F0B8BA000010B586B015
:10231000044614216846FDF7ADFF13492068884242
:102320001FD11248C16941F40021C161C16901F4A2
:1023300000210591416941F40021416140696946EC
:1023400000F4002005904FF44060009002200190BE
:102350000020029003200390052004900448FEF71B
:10236000D9FD06B010BD0000004C00400010024036
:1023700000080048FEE7000030B589B0002406944C
:102380000794182168460894FDF774FF19484FF028
:10239000A0410125C0E9001484600461457680F8FD
:1023A0002040C0E90A54C561C46080F8305004215F
:1023B000416104764463FEF783FA08B172B6FEE722
:1023C00006A90C480694FEF725F808B172B6FEE798
:1023D000022000900394CDE9015404946946054815
:1023E0000594FEF7A3F8002801D072B6FEE709B005
:1023F00030BD00001000002070B586B01421684682
:10240000FDF738FF2648416941F4001141614169F7
:1024100001F400110591416941F4002141614169D4
:1024200001F400210591416941F480014161416954
:1024300001F480010591416941F400314161416934
:1024400001F400310591416941F480214161406905
:10245000144E00F480204FF608750590002229469E
:102460003046FEF733FE372000900F480024CDE9B8
:10247000010469463046FEF74DFD00950125CDE982
:102480000154694630460394FEF744FDCDE90054FB
:1024900069464FF090400294FEF73CFD06B070BDD7
:1024A000001002400010004800001210124810B541
:1024B000104901601149416000210122C0E9021266
:1024C000016141618161C1610162FEF75FFE08B196
:1024D00072B6FEE700210848FEF704FE08B172B6A6
:1024E000FEE700210448FEF728FE002801D072B65E
:1024F000FEE710BD00540040740000200E090020CB
:10250000114810B50F4901604FF4827141600021FC
:102510004FF44072C0E902124FF400720161C0E949
:1025200005120822C0E9072107234162C0E90A1306
:10253000C0E90C12FFF7CAFC002801D072B6FEE712
:1025400010BD000000300140C000002010B588B070
:102550000024174800940194029403940494059471
:102560004FF08041069401602921C0E9011409213E
:10257000C0E903148461FFF7ADFD08B172B6FEE750
:102580004FF48050009069460948FFF71DFE08B1DE
:1025900072B6FEE72020049004A906940448FFF7D1
:1025A00051FD002801D072B6FEE708B010BD000052
:1025B000240100200C4810B50A4901604FF49641EF
:1025C0004160002181600C22C160C0E90412816178
:1025D000C16101624162FFF765FE002801D072B659
:1025E000FEE710BD004C004070010020FEE7FEE752
:1025F00070477047FEF758BE30B59FB028210FA82E
:10260000FDF738FE142119A8FDF734FE3C21684679
:10261000FDF730FE03200F904FF4A0200024CDE9F9
:102620001004012013901020149002250003CDE91E
:1026300016504FF4E01018900FA8FFF763F908B197
:1026400072B6FEE70F20CDE919054FF48060CDE9A1
:102650001B40022119A81D94FFF74AF808B172B671
:10266000FEE708480594009040120E9409900794E4
:102670006846FEF731FF002801D072B6FEE71FB0B2
:1026800030BD0000A80002000248016841F470015A
:102690000160704788ED00E02DE9F0430268234BAC
:1026A000234D244E244C4FF08049984207D0484592
:1026B00005D0A84203D0B04201D0A04203D122F0FD
:1026C00070074A683A431D4FDFF874C0DFF8748022
:1026D00098420DD048450BD0A84209D0B04207D04F
:1026E000A04205D0B84203D0604501D0404503D197
:1026F00022F44075CA682A434D6922F080022A43B9
:1027000002608A68C2620A688262984207D0A04268
:1027100005D0B84203D0604501D0404501D10969D8
:10272000016301214161BDE8F0830000002C0140FC
:102730000004004000080040003401400040014017
:10274000004401400048014010B5846842EA032279
:1027500024F47F440A432243826010BD826822F041
:1027600070020A4342F007018160704710B5036AA6
:10277000046A24F001040462846924F0F00444EA49
:10278000021423F00A020A438461026210BD10B5EC
:10279000036A23F0100303628369046A23F470431D
:1027A00043EA023224F0A00343EA0111826101628C
:1027B00010BD90F82410C90706D001684A68836AE2
:1027C00022F400321A434A6090F82410890706D593
:1027D00001684A68C36A22F480321A434A6090F85A
:1027E0002410490706D501684A68036B22F4802249
:1027F0001A434A6090F82410090706D501684A6810
:10280000436B22F400421A434A6090F82410C90630
:1028100006D501688A68836B22F480521A438A6065
:1028200090F82410890606D501688A68C36B22F4E3
:1028300000521A438A6090F82410490611D50168A5
:102840004A68036C22F480121A434A60016CB1F5A5
:10285000801F06D101684A68436C22F4C0021A4303
:102860004A6090F82410090606D501684A68806C11
:1028700022F4002202434A607047F8B5002604465D
:10288000C0F88060FEF728FC0546206800686FF0FD
:102890007E47000708D52B4600224FF40011204642
:1028A000009700F0FDF860B92068006840070AD57D
:1028B0002B4600224FF480012046009700F0F0F8EC
:1028C00008B10320F8BD2020A067E067266684F8E1
:1028D00074600020F8BD000070B50446806821696E
:1028E000E2690843616900251143226808431168C1
:1028F00049F20C6399430143116020684168E26822
:1029000021F4405111434160216AA06901432068CC
:10291000826822F430620A4382605A4A20685A4927
:1029200090420CD1086B10F0030006D001285FD054
:1029300002285FD0032845D158E0012143E0534AE3
:1029400090420DD1086B10F440304DD0B0F5803F6F
:102950004ED0B0F5003F4DD0B0F5403F32D145E00C
:102960004B4A90420DD1086B10F440203CD0B0F59A
:10297000802F3DD0B0F5002F3CD0B0F5402F21D1B5
:1029800034E0444A90420DD1086B10F440102BD033
:10299000B0F5801F2CD0B0F5001F2BD0B0F5401F34
:1029A00010D123E03C4A90420CD1086B10F4400057
:1029B0001AD0B0F5800F1BD0B0F5000F1AD0B0F5CB
:1029C000400F13D01021E3694FF40040334A4FF613
:1029D000EF7683422ED109294AD2DFE801F00D10AB
:1029E00013491549494918000021ECE70221EAE79B
:1029F0000421E8E70821E6E7FEF71EFF06E0FEF700
:102A000033FF03E0104602E0FEF746FF88B34100C3
:102A1000606801EB5001B1FBF0F081B2A1F1100050
:102A2000B04225D84FF6F07201EA0200C1F342012C
:102A300008431FE009291BD2DFE801F005080B1A43
:102A40000D1A1A1A1000FEF7F7FE06E0FEF70CFF4B
:102A500003E0104602E0FEF71FFF50B1616800EB93
:102A60005100B0FBF1F080B2A0F11001B14201D9E8
:102A7000012501E02168C86000206066A066284644
:102A800070BD0000003801400010024000440040CA
:102A900000480040004C00400050004000127A0006
:102AA0002DE9F0479A4617460E4604464FF00009B6
:102AB0004FF02008089D39E0681C37D0FEF70CFB6A
:102AC000A0EB0A00A84222D80DB32068016849078C
:102AD0002CD5C069C043000528D421684FF400609C
:102AE00008622068016821F4D07101602068816863
:102AF00021F001018160C4F87880C4F87C80C4F8BA
:102B0000808000BF84F874900320BDE8F0872068BF
:102B1000016821F4D07101602068816821F0010111
:102B20008160C4F87880C4F87C80EBE72068C069D5
:102B300036EA000004D00020B842BDD00020E4E70F
:102B40000120F9E7012120F8401F00210180818048
:102B500001820846704730F8401F21F43F41018050
:102B600000207047FEE70907090E002804DB00F18A
:102B7000E02080F80014704700F00F0000F1E02022
:102B800080F8141D704702E008C8121F08C1002A0F
:102B9000FAD170477047002001E001C1121F002ADE
:102BA000FBD170470EB5FEF787FBFFF725FDFFF75A
:102BB00023FC2B48416941F0010141614069002239
:102BC00000F00100009011460B20FEF7CDFB0B201A
:102BD000FEF7BCFB002211460D20FEF7C5FB0D20C1
:102BE000FEF7B4FBFFF7C8FBFFF760FCFFF788FCBC
:102BF0001D481C490825C0E90015022181600024F8
:102C0000846104620161FEF7E1FB08B172B6FEE780
:102C10001749009401941548029408600846FDF78E
:102C2000E2FF08B172B6FEE72420CDE900040022DD
:102C300069460F48FDF7B3FF08B172B6FEE7FFF72C
:102C400085FCFFF7B7FC0A48C430FFF787FA412339
:102C5000084A002106480095FEF728F8FEE7000024
:102C600000100240005C0040F401002000740040AD
:102C700060000020782C00087F8B97A3AFBAC5CFE7
:102C8000D8E1E8EFF4F8FBFDFEFDFBF8F4EFE8E136
:102C9000D8CFC5BAAFA3978B7F73675B4F44392FEB
:102CA000261D160F0A060301000103060A0F161D52
:102CB000262F39444F5B67737F020304050607081C
:102CC000090A0B0C0D0E0F10100102030405060774
:102CD00008090A0B0C0D0E0F100000000000000088
:102CE00000010203040607080900000000010203B6
:102CF00004000000142D0008000000201000000057
:102D0000862B0008242D0008100000205809000020
:102D1000962B0008010000001000000000000000D9
:042D200000127A0023
:040000050800018965
:00000001FF
